:020000040800F2
:100000006011002001010008352000083720000899
:100010003B2000083F2000084320000800000000AB
:100020000000000000000000000000004720000861
:1000300049200008000000004B2000084D20000867
:100040001B0100081B0100081B010008C720000855
:100050001B0100081B0100081B0100081B01000810
:100060001B0100081B0100081B0100081B01000800
:100070001B0100081B0100081B0100081B010008F0
:100080001B0100081B0100081B0100081B010008E0
:100090001B0100081B0100081B0100081B010008D0
:1000A0001B0100081B0100081B0100081B010008C0
:1000B000D9220008632900081B0100081B01000861
:1000C0001B0100081B0100081B0100081B010008A0
:1000D0001B01000857200008D92900088F200008BC
:1000E0001B0100081B0100081B010008DFF80CD0F1
:1000F00004F000FE00480047611F00086011002066
:100100000648804706480047FEE7FEE7FEE7FEE7B1
:10011000FEE7FEE7FEE7FEE7FEE7FEE70302000874
:10012000ED0000080CB50020019000906C480068BC
:1001300040F480306A49086000BF6948006800F4F4
:10014000003000900198401C0190009818B9019867
:10015000B0F5A06FF1D16248006800F4003010B132
:100160000120009001E0002000900098012843D178
:100170005C48006840F010005A4908600846006872
:1001800020F0030008600846006840F002000860A4
:1001900053484068524948600846406848600846ED
:1001A000406840F4806048600846406820F47C1055
:1001B00048600846406840F4E81048600846006817
:1001C00040F08070086000BF4548006800F0007093
:1001D0000028F9D04248406820F0030040494860B8
:1001E0000846406840F00200486000BF3C48406854
:1001F00000F00C000828F9D10CBD10B5FFF792FFF4
:1002000010BD10B53648006840F001003449086060
:10021000084640683449084031494860084600684B
:10022000324908402E4908600846006820F48020C2
:1002300008600846406820F4FE0048604FF41F0044
:100240008860FFF7DAFF4FF000602949086010BDB1
:1002500010B5002100200022214B5B6803F00C0147
:1002600021B1042906D0082928D107E0214B224CCE
:10027000236027E01F4B204C236023E0184B5B6872
:1002800003F47010164B5B6803F48032022303EB17
:10029000904022B9194B4343174C23600DE0104B9B
:1002A0005B6803F4003323B1144B4343124C2360C7
:1002B00003E0104B4343104C236003E00D4B0E4C06
:1002C000236000BF00BF064B5B68C3F303130C4CF5
:1002D000E15C094B1B68CB40074C236010BD00005C
:1002E00000100240002002400000FFF8FFFFF6FE71
:1002F00008ED00E000127A000000002000093D0037
:100300000400002031490143314A1160704770B543
:10031000002100230F22C47804B32D4C246804F478
:10032000E064C4F5E064210AC1F10403CA404478E2
:1003300004FA03F18478144021430901254C06781E
:10034000A155047804F01F050124AC4005786D1117
:10035000AD0005F1E025C5F8004109E0047804F09E
:100360001F050124AC401C4D0678761145F8264047
:1003700070BD1A4A0A400243154B1B1F1A60704792
:1003800039B1134A121D12680243114B1B1D1A602A
:1003900006E00F4A121D126882430D4B1B1D1A60A6
:1003A0007047042808D14FF0E021096941F00401A9
:1003B0004FF0E022116107E04FF0E021096921F0E0
:1003C00004014FF0E0221161704700000000FA05BF
:1003D0000CED00E000E400E080E100E080FFFF1FA2
:1003E00010B50446CC48844208D10121042000F015
:1003F0004DFB0021042000F049FB46E0C748844241
:1004000008D10121082000F041FB0021082000F064
:100410003DFB3AE0C248844208D10121102000F09F
:1004200035FB0021102000F031FB2EE0BD48844256
:1004300008D10121202000F029FB0021202000F01C
:1004400025FB22E0B848844208D10121402000F079
:100450001DFB0021402000F019FB16E0B348844248
:1004600008D10121802000F011FB0021802000F044
:100470000DFB0AE0AE48844207D10121801500F04F
:1004800005FB0021A01500F001FB10BD10B50121F6
:10049000084600F0FBFA0021012000F0F7FA10BD39
:1004A0002DE9F0410246002500260020002300240B
:1004B000002791F803C00CF00F0591F803C00CF071
:1004C000100CBCF1000F03D091F802C04CEA0505F6
:1004D00091F800C0BCF1000F31D0146800202BE06F
:1004E0004FF0010C0CFA00F3B1F800C00CEA03065F
:1004F0009E4220D183004FF00F0C0CFA03F7BC434F
:1005000005FA03FC4CEA040491F803C0BCF1280F7F
:1005100006D14FF0010C0CFA00FCC2F814C00AE03E
:1005200091F803C0BCF1480F05D14FF0010C0CFA53
:1005300000FCC2F810C0401C0828D1D31460B1F8E8
:1005400000C0BCF1FF0F34DD546800202EE000F144
:10055000080C4FF0010808FA0CF3B1F800C00CEADF
:1005600003069E4221D183004FF00F0C0CFA03F7D3
:10057000BC4305FA03FC4CEA040491F803C0BCF147
:10058000280F05D100F1080C08FA0CF8C2F8148005
:1005900091F803C0BCF1480F07D100F1080C4FF0EF
:1005A000010808FA0CF8C2F81080401C0828CED3C5
:1005B0005460BDE8F0814FF6FF7101800221817027
:1005C0000421C17070470246002093680B400BB1B4
:1005D000012000E0002070470146886880B2704723
:1005E00002460020D3680B400BB1012000E0002040
:1005F00070470146C86880B2704701617047416129
:1006000070470AB1016100E041617047C160704705
:100610004FF480320A43826181618261826982691A
:10062000704702460020434B18684FF6807318400D
:1006300040EA021008433F4B186070473E49C861CA
:100640007047F0B50A46002300240021002500F081
:100650000046B6F1004F02D1364EF16901E0354E49
:100660007168C0F3034583B200F44016B6F5401F2D
:1006700008D121F070612F4E766826F070662D4FFC
:100680007E6012E000F48016B6F5801F06D10326C6
:1006900006FA05F4A14341F0706106E0460D36010B
:1006A00003FA06F6B14341F0706122B1460D3601FE
:1006B00003FA06F6314300F00046B6F1004F02D1CE
:1006C0001C4EF16101E01B4E7160F0BD30B500229F
:1006D0008B071C0F0F2303FA04F2164B08338C1000
:1006E00053F824309343134C08348D1044F82530CC
:1006F00023468C1053F824308C07240F00FA04F49E
:1007000023430C4C08348D1044F8253030BD0A4981
:10071000DC3108607047000000080140000C014017
:10072000001001400014014000180140001C01406D
:100730000020014000000140000020420E490860F6
:1007400070470D49486070470B49886070474AF60A
:10075000AA200949086070474CF6CC400649086059
:10076000704701460020044AD2680A400AB10120BD
:1007700000E000207047000000300040DF480068C3
:1007800040F00100DD49086008464068DC49084047
:10079000DA49486008460068DA490840D7490860E5
:1007A0000846006820F4802008600846406820F46D
:1007B000FE0048604FF41F0088607047CF49096809
:1007C00021F48031CD4A11601146096821F480215D
:1007D0001160B0F5803F03D0B0F5802F0ED106E058
:1007E000C649096841F48031C44A116007E0C34931
:1007F000096841F4A021C14A116000E000BF00BFB8
:10080000704710B501460022002300204A11012A3A
:1008100002D1BA4C236806E0022A02D1B74C236AFF
:1008200001E0B64C636A01F01F02012494401C40B1
:100830000CB1012000E0002010BD38B50020009070
:100840000024002500BF3120FFF7DBFF054600989C
:10085000401C00900098B0F5A06F01D0002DF2D0A0
:100860003120FFF7CEFF08B1012400E0002420462C
:1008700038BD01460020A14A106820F0F80040EA87
:10088000C10010607047A049086070470246002010
:100890009A4B586820F47C1042EA01031843974BA6
:1008A0005860704798490866704701460020934A8F
:1008B000506820F003000843506070478F4840683C
:1008C00000F00C007047014600208C4A506820F070
:1008D000F00008435060704701460020874A506886
:1008E00020F4E06008435060704701460020834ACE
:1008F000506820F4605040EAC1005060704729B150
:100900007E4A527A02437D4B5A7204E07B4A527A05
:1009100082437A4B5A7270477B49D83108607047DE
:1009200001460020754A506820F44040084350605A
:1009300070470021714A20321170704A82F82010ED
:10094000012802D004280AD104E001216B4A203298
:10095000117005E00521694A2032117000E000BFE6
:1009600000BF70476949086070476449096A0143DC
:10097000624A11627047654944390860704730B572
:1009800000210022002400235C4D6D6805F00C015D
:1009900021B1042905D0082923D105E05C4D05606B
:1009A00022E05B4D05601FE0544D6D6805F4701248
:1009B000524D6D6805F48034022505EB92421CB956
:1009C000544D554305600BE04C4D6D6805F4003502
:1009D0001DB1504D5543056002E04D4D5543056036
:1009E00002E04B4D056000BF00BF444D6D6805F04F
:1009F000F0010909484D6B5C0568DD4045603F4DDD
:100A00006D6805F4E061090A434D6B5C4568DD40A3
:100A100085603A4D6D6805F46051C90A3E4D6B5CC6
:100A20004568DD40C560354D6D6805F44041890B72
:100A30003A4D6B5CC568B5FBF3F5056130BD29B176
:100A40002E4A526902432D4B5A6104E02B4A5269E7
:100A500082432A4B5A61704729B1284A926902435E
:100A6000264B9A6104E0254A92698243234B9A619E
:100A7000704729B1214AD2690243204BDA6104E070
:100A80001E4AD26982431D4BDA61704729B11B4A65
:100A9000D2680243194BDA6004E0184AD2688243F4
:100AA000164BDA60704729B1144A12690243134B9E
:100AB0001A6104E0114A12698243104B1A617047AF
:100AC00012494039086070470F49C86470470B49A4
:100AD000C87170470948406A40F080700749486211
:100AE000704701460020054A92680A400AB1012079
:100AF00000E00020704701498872704700100240F2
:100B00000000FFF8FFFFF6FE000042428004424270
:100B100000127A0000093D0014000020240000208B
:100B200029B1504A128802434E4B1A8004E04D4AC4
:100B3000128882434B4B1A8070474A48001D008838
:100B400040F010004749091D088070474548001DC6
:100B500000884FF6EF7108404249091D0880704730
:100B6000002140481C300188001F008841EA0040F5
:100B7000704700B50246FFF7E0FF100C3949183105
:100B80000880091D0A80FFF7E1FF00BD00B502469D
:100B9000FFF7D3FFC2F30340324908310880091D33
:100BA0000A80FFF7D3FF00BD00B50246FFF7C5FF7F
:100BB000100C2C4920310880091D0A80FFF7C6FF60
:100BC00000BD00202749103109880907080B254975
:100BD000143109880843704700BF2248001D00886F
:100BE00000F020000028F8D070471E48001D008843
:100BF0004FF6F77108401B49091D088000BF1948CE
:100C0000001D008800F008000028F8D07047014659
:100C10000020144A121D12880A400AB1012000E087
:100C2000002070470F49091D098881430D4A121D94
:100C300011807047014600200A4A121D12880A409E
:100C4000D0B2084A12880A4012B108B1012000E06F
:100C5000002070470349091D09888143014A121D7C
:100C6000118070470028004010B50446FE488442B9
:100C700008D10121C014FFF709FF0021E014FFF79C
:100C800005FFC4E0B4F1804F08D101210846FFF709
:100C90000AFF00210120FFF706FFB8E0F348844275
:100CA00008D101210220FFF7FEFE00210220FFF7FC
:100CB000FAFEACE0EE48844208D101210420FFF79F
:100CC000F2FE00210420FFF7EEFEA0E0E948844296
:100CD00008D101210820FFF7E6FE00210820FFF7D8
:100CE000E2FE94E0E448844208D101211020FFF79D
:100CF000DAFE00211020FFF7D6FE88E0DF488442AC
:100D000008D101212020FFF7CEFE00212020FFF78F
:100D1000CAFE7CE0DA48844208D101214014FFF782
:100D2000B5FE00216014FFF7B1FE70E0D5488442A3
:100D300009D10121C804FFF7A9FE00214FF40020CA
:100D4000FFF7A4FE63E0D048844209D101210805E1
:100D5000FFF79CFE00214FF48010FFF797FE56E04E
:100D6000CA48844209D101214805FFF78FFE0021BE
:100D70004FF40010FFF78AFE49E0C548844208D1CD
:100D800001214020FFF78FFE00214020FFF78BFE5E
:100D90003DE0C048844208D101218020FFF783FE56
:100DA00000218020FFF77FFE31E0BB48844208D15C
:100DB00001218015FFF777FE0021A015FFF773FED4
:100DC00025E0B648844209D101210804FFF75EFE00
:100DD00000214FF48030FFF759FE18E0B0488442FC
:100DE00009D101214804FFF751FE00214FF40030E2
:100DF000FFF74CFE0BE0AB48844208D10121880488
:100E0000FFF744FE00214FF48020FFF73FFE10BDA6
:100E100000220288944B98420ED0994B98420BD0F6
:100E2000B0F1804F08D0914B984205D0904B98423A
:100E300002D0904B984204D14FF68F731A404B88E2
:100E40001A438D4B984207D08C4B984204D04FF6F2
:100E5000FF431A40CB881A4302808B8883850B8816
:100E60000385814B98420BD0854B984208D08B4B21
:100E7000984205D08A4B984202D08A4B984201D1C1
:100E80000B7A038601238382704770B50024002209
:100E90000023058C4FF6FE7635400584028C83884E
:100EA000048B4FF68F752C40B51E2C400D882C43BB
:100EB000751E2A400D892A434D882A436A4DA8424F
:100EC0000BD06F4DA84208D0744DA84205D0744D88
:100ED000A84202D0734DA84213D14FF6F7752A40AD
:100EE0004D892A434FF6FB752A408D882A434FF6D9
:100EF000FF652B404FF6FF552B408D892B43CD8945
:100F00002B4383800483CD888586028470BD70B5B1
:100F1000002400220023058C4FF6EF76354005842F
:100F2000028C8388048B48F6FF752C404FF6FF45F2
:100F30002C400D884FF6FF7606EA05252C434FF628
:100F4000DF752A400D8906EA05152A434D8806EA11
:100F500005152A43444DA84202D0494DA8421DD14F
:100F60004FF67F752A404D894FF6FF7606EA051544
:100F70002A434FF6BF752A408D8806EA05152A4395
:100F80004FF6FF352B404FF2FF752B408D8906EA57
:100F900085052B43CD8906EA85052B438380048391
:100FA000CD880587028470BD70B50024002200231F
:100FB000058C4FF6FF6635400584028C8388848B50
:100FC0004FF68F752C404FF6FC752C400D882C4346
:100FD0004FF6FF552A400D894FF6FF7606EA0525A4
:100FE0002A434D8806EA05252A431F4DA84202D010
:100FF000234DA8421DD14FF2FF752A404D894FF66F
:10100000FF7606EA05252A434FF6FF352A408D88EC
:1010100006EA05252A434EF6FF752B404DF6FF756F
:101020002B408D8906EA05152B43CD8906EA051567
:101030002B4383808483CD888587028470BD70B5FF
:10104000002200230024058C4EF6FF7635400584EF
:10105000038C8488828B48F6FF752A404FF6FF4543
:101060002A400D8820E00000002C014000040040D0
:1010700000080040000C0040001000400014004038
:1010800000340140004C0140005001400054014038
:1010900000180040001C00400020004000400140BB
:1010A00000440140004801404FF6FF7606EA05255E
:1010B0002A434DF6FF752B400D8906EA05352B4373
:1010C0004D8806EA05352B43FA4DA84202D0FA4D69
:1010D000A84208D14BF6FF752C408D894FF6FF765C
:1010E00006EA85152C4384808283CD88A0F8405081
:1010F000038470BD828B4FF2FF331A408283828B50
:101100004FF6FF7303EA01231A4382837047F0B559
:101110000C461546002200210026078C4EF6FF7C67
:1011200007EA0C070784828B018C4FF6FF7707EAEA
:10113000043640F6FF473A404FF6FF7707EA0527A7
:101140003A434FF6FF7707EA03373A43D94FB8429D
:101150000ED0D94FB8420BD0B0F1804F08D0D74F46
:10116000B84205D0D64FB84202D0D64FB84206D1C9
:101170004DF6FF77394046F48057394305E047F68E
:10118000FF57394044F48057394382830184F0BDCE
:10119000828B4FF6F3731A408283828B0A438283D9
:1011A0007047F0B50C461546002200210026078C3A
:1011B0004FF6FF6C07EA0C070784828B018C4FF611
:1011C000FF7707EA04264FF60C773A404FF6FF7791
:1011D00007EA03172F433A43B64FB8420ED0B64F33
:1011E000B8420BD0B0F1804F08D0B44FB84205D010
:1011F000B34FB84202D0B34FB84206D14FF6FF57B3
:10120000394046F48077394305E04FF2FF573940C3
:1012100044F48077394382830184F0BD028B4FF21E
:10122000FF331A400283028B4FF6FF7303EA012358
:101230001A4302837047F0B50C4615460022002180
:101240000026078C4FF6EF7C07EA0C070784028B19
:10125000018C4FF6FF7707EA041640F6FF473A4045
:101260004FF6FF7707EA03373A434FF6FF7707EA6F
:1012700005273A438F4FB8420ED08F4FB8420BD05C
:10128000B0F1804F08D08D4FB84205D08C4FB84296
:1012900002D08C4FB84206D14FF6DF77394046F086
:1012A0001007394305E04FF65F77394044F01007E7
:1012B000394302830184F0BD028B4FF6F3731A4069
:1012C0000283028B0A4302837047F0B50C46154631
:1012D00000220021068C4FF6FE773E400684028BEA
:1012E000018C4FF60C7632407E1C06EA03162E4324
:1012F0003243704EB0420ED06F4EB0420BD0B0F1C0
:10130000804F08D06D4EB04205D06D4EB04202D035
:101310006C4EB04206D14FF6FD76314044F00106E6
:10132000314305E04FF6F576314044F00106314394
:1013300002830184F0BD70B505460C465D488542C8
:101340000ED05D4885420BD0B5F1804F08D05B4888
:10135000854205D05A48854202D05A48854200D17C
:1013600000E000BF208850B92389A2886188284600
:10137000FFF7ABFFE1882846FFF79EFF25E02088B6
:1013800004280AD12389A28861882846FFF753FFE1
:10139000E1882846FFF742FF17E0208808280AD195
:1013A0002389A28861882846FFF7FBFEE18828464A
:1013B000FFF7EEFE09E02389A28861882846FFF73F
:1013C000A6FEE1882846FFF795FE70BD2DE9F041A5
:1013D00005460C4600260127608808B9022600E071
:1013E0000026A088012801D1022700E001272088DB
:1013F000A0B92389A28861882846FFF766FFE188A3
:101400002846FFF759FF23893A4631462846FFF719
:1014100012FFE1882846FFF701FF13E02389A28825
:1014200061882846FFF707FFE1882846FFF7F6FEA8
:1014300023893A4631462846FFF747FFE188284688
:10144000FFF73AFFBDE8F0810A884B881A438B8882
:101450001A43CB881A430B891A434B891A438B8949
:101460001A43A0F8442070474FF6FF718180002195
:101470000180C1804180017270470021018041805C
:101480008180C180018141818181C18170470021BA
:1014900001804180012181800021C180018170474C
:1014A0000021018041808180C18001814181818151
:1014B00070470000002C014000340140000400404F
:1014C00000080040000C004021B1028842F00102F7
:1014D000028004E002884FF6FE731A4002807047D3
:1014E00031B1B0F8442042F40042A0F8442005E0B5
:1014F000B0F84420C2F30E02A0F8442070471AB19D
:1015000083890B43838102E083898B438381704706
:101510008182704741EA0203A0F8483070471AB14F
:1015200083890B43838102E083898B4383817047E6
:1015300001894FF6F8721140018170470A46002177
:1015400001894FF68F73194011430181704730B5FF
:1015500004460D4629462046FFF7F0FF208940F05B
:101560000700208130BD2DE9F04104460D461646A6
:101570001F46602D06D13B46012231462046FFF72B
:101580005AFE05E03B46012231462046FFF79DFE0C
:1015900029462046FFF7D2FF208940F0070020812E
:1015A000BDE8F08130B50C4600210189C9B24FF683
:1015B000FF7505EA0325154325432943018130BD05
:1015C0002DE9F04105460E4617469846002443464D
:1015D0003A4631462846FFF7E5FF2C894FF6F8706A
:1015E000044044F007044FF68F70044044F0700448
:1015F0002C81BDE8F081F0B504460D4616461F4625
:101600003B46324629462046FFF7CCFF208940F46E
:1016100080402081F0BD0185828270470A4600210A
:1016200001884FF68F731940114301807047F0B560
:101630000C4615461E460021002200230189028B1C
:10164000038C4FF6F877394021434FF6FC473A4078
:1016500040F201173A434FF6DD773B404FF6FF77F4
:1016600007EA06172F433B43018102830384F0BD41
:101670000A460021018B4FF68F73194011430183F5
:1016800070470A460021018B48F6FF7319404FF658
:10169000FF7303EA02231943018370470A460021BE
:1016A000818B4FF68F7319401143818370470A462F
:1016B0000021818B48F6FF7319404FF6FF7303EA50
:1016C000022319438183704721B1028842F08002CE
:1016D000028004E002884FF67F731A400280704750
:1016E00021B1828842F00402828004E082884FF6B1
:1016F000FB731A408280704721B1828842F0080251
:10170000828004E082884FF6F7731A408280704727
:1017100021B1828842F00102828004E082884FF683
:10172000FE731A40828070470A460021018B4FF6F3
:10173000F77319401143018370470A460021018B5A
:101740004FF2FF7319404FF6FF7303EA0223194368
:10175000018370470A460021818B4FF6F7731940C9
:101760001143818370470A460021818B4FF2FF733A
:1017700019404FF6FF7303EA022319438183704730
:101780000A460021018B4FF6FB7319401143018378
:1017900070470A460021018B4FF6FF3319404FF680
:1017A000FF7303EA02231943018370470A460021AD
:1017B000818B4FF6FB7319401143818370470A46B2
:1017C0000021818B4FF6FF3319404FF6FF7303EA78
:1017D00002231943818370470A460021018B4FF68B
:1017E0007F7319401143018370470A460021018B22
:1017F000C1F30E014FF6FF7303EA0223194301837D
:1018000070470A460021818B4FF67F7319401143C0
:10181000818370470A460021818BC1F30E014FF688
:10182000FF7303EA02231943818370470A460021AC
:10183000018C4FF6FD7319401143018470470A462D
:101840000021018C4FF6F773194011430184704752
:101850000A460021018C4FF6DF7319404FF6FF73E3
:1018600003EA02131943018470470A460021018CE0
:101870004FF67F7319404FF6FF7303EA02131943C3
:10188000018470470A460021018C4FF6FF5319402E
:101890004FF6FF7303EA02231943018470470A4697
:1018A0000021018C4FF2FF7319404FF6FF7303EADA
:1018B00002231943018470470A460021018C4DF62A
:1018C000FF7319404FF6FF7303EA02331943018493
:1018D000704730B5002301248C40A3B2048C9C4394
:1018E0000484048C02FA01F5ADB22C43048430BDAB
:1018F00030B5002304248C40A3B2048C9C430484A0
:10190000048C02FA01F5ADB22C43048430BD70B5ED
:101910000346002000241846183001258D40ACB243
:101920001D8CA5431D8409B1082909D100EB610074
:10193000056825F0700505600568154305600EE033
:101940000D1FC5F34E052844056825F4E0450560E4
:1019500005684FF6FF7606EA02263543056070BD3E
:1019600021B1028842F00202028004E002884FF6B0
:10197000FD731A400280704721B1028842F00402D0
:10198000028004E002884FF6FB731A400280704721
:1019900021B1828842F08002828004E082884FF682
:1019A0007F731A408280704702884FF6F7731A409F
:1019B000028002880A430280704782884FF68F7344
:1019C0001A40828082880A438280704702894FF6DB
:1019D000F8731A40028102890A4302817047028922
:1019E0004FF67F731A40028102890A4302817047D1
:1019F0008184704781857047818670470187704771
:101A000081877047A0F84010704702884FF6FF4367
:101A10001A40028002880A43028070470146888E7D
:101A200070470146088F70470146888F704701460E
:101A3000B1F8400070470146888C70470146088D18
:101A4000704702460020138A0B400BB1012000E0D2
:101A500000207047CA430282704730B5024600201A
:101A600000230024158A05EA0103958905EA01048B
:101A700013B10CB1012000E0002030BDCA43028246
:101A80007047000010B50446FB48844209D101218B
:101A90008803FEF7FBFF00214FF48040FEF7F6FFBE
:101AA00032E0F648844209D101214804FEF7FBFFE9
:101AB00000214FF40030FEF7F6FF25E0F0488442A5
:101AC00009D101218804FEF7EEFF00214FF48020A8
:101AD000FEF7E9FF18E0EB48844209D10121C80470
:101AE000FEF7E1FF00214FF40020FEF7DCFF0BE0E2
:101AF000E548844208D101210805FEF7D4FF002102
:101B00004FF48010FEF7CFFF10BD2DE9F04786B0EF
:101B100005460E460024A24600BFA1460027B08914
:101B200000B100BF2F462C8A4CF6FF700440F088AD
:101B300004432C82AC894EF6F3100440B0883189FE
:101B40000843718908430443AC81AC8A4FF6FF40D7
:101B50000440B0890443AC8201A8FEF710FFC648D8
:101B6000874202D1DDF810A001E0DDF80CA0A889C1
:101B700000F4004040B10AEBCA0000EB0A103168E3
:101B80004900B0FBF1F807E00AEBCA0000EB0A10CD
:101B900031688900B0FBF1F86420B8FBF0F0040173
:101BA0002009642101FB1089A88900F4004040B19C
:101BB000322000EBC900B0FBF1F000F00700044355
:101BC00008E0322000EB09106421B0FBF1F000F0D6
:101BD0000F0004432C8106B0BDE8F0874FF4165186
:101BE000016000218180C18001810C21418100219F
:101BF0008181704710B502460020108A4FF2FF0322
:101C000018400B884C8823438C882343CC8823437B
:101C10001843108210BD0021018041808180C18065
:101C2000704721B1828942F40052828104E08289A6
:101C30004DF6FF731A4082817047F0B503460024C9
:101C400000260025002040F66A17B94200D100BFE7
:101C50001846C1F3421401F01F06012707FA06F5E2
:101C6000012C01D10C3004E0022C01D1103000E035
:101C700014301AB107682F43076002E00768AF43CA
:101C80000760F0BD1AB1838A0B43838202E0838A26
:101C90008B4383827047028A4FF6F0731A400282A8
:101CA000028A0A430282704782894FF2FF731A4008
:101CB000828182890A438281704721B1828942F000
:101CC0000202828104E082894FF6FD731A4082810C
:101CD0007047028A4FF6DF731A400282028A0A4373
:101CE0000282704721B1028A42F48042028204E0FB
:101CF000028A4BF6FF731A4002827047C1F3080252
:101D00008280704701468888C0F308007047818947
:101D100041F0010181817047028BD2B20283028BB4
:101D200042EA012202837047028B02F47F4202835F
:101D3000028B0A430283704721B1828A42F020025B
:101D4000828204E0828A4FF6DF731A4082827047F3
:101D500021B1828A42F01002828204E0828A4FF628
:101D6000EF731A408282704721B1828A42F00802E2
:101D7000828204E0828A4FF6F7731A4082827047AB
:101D800021B1828942F40042828103E08289C2F358
:101D90000E028281704721B1828A42F400628282FF
:101DA00004E0828A4FF2FF731A4082827047828A6F
:101DB0004FF6FB731A408282828A0A4382827047FE
:101DC00021B1828A42F00202828204E0828A4FF6C6
:101DD000FD731A408282704702460020B1F5007FF1
:101DE00000D100BF13880B400BB1012000E00020A0
:101DF000704701F40072B2F5007F00D100BFCA4302
:101E00000280704770B502460024002300250020A0
:101E100040F66A16B14200D100BFC1F3421501F08D
:101E20001F03012606FA03F3012D02D196893340E0
:101E300006E0022D02D1168A334001E0968A334033
:101E40000C12012606FA04F41688344013B10CB1C2
:101E5000012000E0002070BD10B50022002340F6F4
:101E60006A14A14200D100BF0A1201249440A3B217
:101E7000DC43048010BD00000038014000440040F5
:101E800000480040004C00400050004010B500F0F9
:101E900099FB022000F0B8FB0D213D4802F0F1FD56
:101EA00000F054FC00F0CEFB10BD704710B539A017
:101EB00002F032FF032002F07EFA10BD10B53DA003
:101EC00002F02AFF002002F076FA10BD10B541A002
:101ED00002F022FF0022FE21084600F057FC0120FC
:101EE00002F069FA10BD10B541A002F015FFFE2204
:101EF0000021084600F04AFC022002F05CFA10BD06
:101F000000B589B0AFF24B00AFF25F014FF48063D0
:101F10003F4ACDE90010082103A800F019FA152264
:101F200003A93C4802F094FDAFF24500AFF2630113
:101F30004FF48073384ACDE90010042103A800F063
:101F400007FA152203A93348153002F081FD314804
:101F50003249C1F80100084600F023FA09B000BD7B
:101F6000FEF74FF9FFF792FFFFF7CAFF00F006FDFB
:101F700000F073FD02F011FA29A002F0CDFE06E098
:101F800000F058FBFFF791FF014802F042FBF7E732
:101F9000500000204B455931205052455353202CBE
:101FA00050726F64756374696F6E204D6F64650A5B
:101FB000000000004B455931205052455353204CEE
:101FC0004F4E47202C576966692052657365740A25
:101FD000000000004B455932205052455353202CED
:101FE000536F6674204150206D6F64650A000000D5
:101FF0004B455932205052455353204C4F4E4720A9
:102000002C4169724C696E6B206D6F64650A00002B
:10201000000C01405D000020000801402B00002062
:102020004D435520496E697420537563636573731E
:10203000200A0000704700BFFEE700BFFEE700BFB8
:10204000FEE700BFFEE770477047704700204FF083
:10205000E0218861704710B540F225511E48FFF716
:10206000D1FE98B140F225511B48FFF7F5FE1A4802
:10207000FFF748FE044621461748FFF73FFE00BF22
:1020800080211548FFF7A8FE0028F9D010BD10B533
:1020900040F225511148FFF7B5FE98B140F22551A5
:1020A0000E48FFF7D9FE0D48FFF72CFE04462146E7
:1020B0000A48FFF723FE00BF80210848FFF78CFE87
:1020C0000028F9D010BD10B50120FEF7B3FD10B106
:1020D0000120FEF7BFFD10BD003801400048004060
:1020E00070B505460024002600BF22E0D5F8012087
:1020F000C4EBC40303EB43031A44B2F8092091B2C2
:10210000D5F80120C4EBC40303EB43031A44D2F80F
:102110000500FEF758FA50B9D5F80100C4EBC40128
:1021200001EB4101415C01208840304386B2601CD4
:10213000C4B2BC480078A042D8DC304670BD70B54F
:10214000054600240026B8480078401CB6490870AF
:10215000084600781E2804DB002008700120B349DF
:102160000870B2480078012856D10020AF490870A5
:102170002846FFF7B5FF0446AD48007830B1012886
:102180000BD0022819D0032845D13CE024B1A9483E
:1021900004800120A64908703DE0A64800888442DA
:1021A00007D10220A2490870A248008840F4805656
:1021B00002E000209E4908702DE09E48008884427D
:1021C0000AD000209A4908709B49088099480088E5
:1021D00040F40056304670BD96480088844211D1C4
:1021E00095480088401C9449088008460088642867
:1021F00008DB0020088003208D49087044F4004665
:102200003046E8E707E08B480088844202D000208F
:102210008749087000BF00BF0020DCE770B50546A5
:10222000002400262846FFF78AFF064606B970BD3F
:1022300006F4005028B3002420E0D5F80100C4EBD8
:10224000C40101EB4101415C01208840304098B15C
:10225000D5F80100C4EBC40101EB41010844D0F8FA
:102260000D0048B1D5F80110C4EBC40202EB4202E4
:102270001144D1F80D008047601CC4B22878A042F8
:10228000DBDC06F4004028B3002420E0D5F8010090
:10229000C4EBC40101EB4101415C012088403040A6
:1022A00098B1D5F80100C4EBC40101EB4101084429
:1022B000D0F8110048B1D5F80110C4EBC40202EB0C
:1022C00042021144D1F811008047601CC4B2287842
:1022D000A042DBDC00BFAAE710B501218807FFF7A9
:1022E000BCFB30B101218807FFF7C8FB4D48FFF761
:1022F00095FF10BD7FB541F61F4509240121084611
:10230000FEF7B7FBADF80850ADF804400020ADF87B
:102310000A00ADF8060001A9A007FEF779FD012229
:1023200011469007FFF7EBF81C208DF80000002005
:102330008DF8010002208DF8020001208DF80300C5
:102340006846FDF7E4FF01218807FFF7BDF87FBD70
:102350002DE9F04387B007460C4615461E46DDE9D9
:102360000E89CDF80540CDF80950CDF80D60334801
:102370000078401C40B231490870C0B28DF80400AA
:10238000CDF81590CDF811802D480078401C2C49CF
:102390000870152201A9384602F05AFB07B0BDE8C3
:1023A000F08338B50446002504B938BD24480078C8
:1023B000207020780C2801DD0C20207000252AE0F8
:1023C00054F8011FC5EBC50202EB42021144D1F8DB
:1023D00001000121FEF740FB03208DF80200482098
:1023E0008DF803002068C5EBC50101EB41010844ED
:1023F000B0F8090080B2ADF8000054F80119C5EB3F
:10240000C50202EB42021144D1F805006946FEF70D
:1024100047F8681CC5B22078A842D1DCFFF76AFFF4
:1024200000BFC2E72B000020300000203200002057
:102430003300002036000020340000203800002047
:102440003100002008B501210420FEF705FB012121
:102450000846FEF701FB01218803FEF7FDFA4FF461
:102460000070ADF8000018208DF8030003208DF8EF
:10247000020069465F48FEF713F84FF48060ADF83C
:10248000000004208DF8030069465A48FEF708F85A
:1024900001211020FEF7E0FA01218804FEF7E9FA95
:1024A00001210846FEF7D8FA01215348FEF7C9F882
:1024B0004FF48060ADF8000018208DF80300032071
:1024C0008DF8020069464D48FDF7EAFF4FF40060C1
:1024D000ADF8000004208DF8030069464748FDF779
:1024E000DFFF08BD1FB54FF4E13000900020ADF8CC
:1024F0000400ADF80600ADF80800ADF80C000C20A3
:10250000ADF80A0069463E48FFF7FFFA012240F2A3
:1025100025513B48FFF791FB01213948FFF781FB2B
:1025200040213748FFF765FC4FF4E1300090002070
:10253000ADF80400ADF80600ADF80800ADF80C00E9
:102540000C20ADF80A0069462E48FFF7DEFA01229A
:1025500040F225512B48FFF770FB01212948FFF776
:1025600060FB40212748FFF744FC1FBD08B525202C
:102570008DF8000000208DF801008DF80200012088
:102580008DF803006846FDF7C2FE27208DF8000095
:1025900000208DF8010001208DF802008DF8030065
:1025A0006846FDF7B4FE08BD10B504462146144840
:1025B000FFF7A4FB00BF80211148FFF70DFC0028A6
:1025C000F9D010BD10B5FFF73DFFFFF78BFFFFF708
:1025D000CDFF10BD70B504460D46E1B20848FFF7C7
:1025E0008DFB00BF80210648FFF7F6FB0028F9D0DD
:1025F000204670BD0008014010001400001001408A
:10260000003801400048004070B50446042540F2FF
:102610007120604386B245F25550FEF78FF8284688
:10262000FEF78FF83046FEF78FF8FEF790F8FEF7CA
:1026300093F870BD4AF6AA2001490860704700006F
:102640000030004008B501210420FEF705FA032000
:102650008DF8020010208DF8030003208DF8020091
:102660000120ADF8000069465348FDF719FF08BD89
:1026700008B500210091009102E00099491C0091E9
:1026800000998142F9D308BD10B54FF480714B48D1
:10269000FDF7B5FF2820FFF7EBFF4FF480714748A7
:1026A000FDF7ABFF2820FFF7E3FF10BD10B54FF497
:1026B00000714248FDF7A3FF002403E0FFF7E4FFA9
:1026C000601CC4B2202CF9DB10BD01460020CA43B7
:1026D000C2F38110704770B50446002512E004F083
:1026E000004028B14FF400713448FDF786FF04E044
:1026F0004FF400713148FDF782FF6400FFF7C4FF1B
:10270000681CC5B2202DEADB70BD2DE9F0410746FB
:102710000D461646002444F040443046FFF7D5FFEE
:1027200044EA00742846FFF7D0FF44EA8064384644
:10273000FFF7CBFF44EA006444EA064444EA052478
:102740003C432046FFF7C7FFBDE8F08108B50121F3
:102750000820FEF781F910208DF803004FF4407037
:10276000ADF8000003208DF8020069461348FDF71C
:1027700097FEFFF79BFF002211461046FFF7C5FFAB
:10278000002211461046FFF7C0FF08BD70B5044691
:102790000D46164601210848FDF72FFFFFF786FF7B
:1027A000324629462046FFF7B0FF324629462046EA
:1027B000FFF7ABFF70BD000000080140000C0140B6
:1027C0002DE9FF4707460E4692464FF00008354672
:1027D000B146344607B126B94FF0FF3004B0BDE82A
:1027E000F0874FF000089AE0781C10F808001428D1
:1027F0006FD2DFE800F06C6D6F8E8E707172738E29
:102800008E8E8E747E7A0A36485A2878BE490870B1
:1028100008460178BDA002F07FFABB480078012885
:102820000FD1FE20C1490870C1490870C149087024
:1028300008460278BE480178BC480078FFF7A6FF3A
:102840000EE00020B9490870B9490870B94908700C
:1028500008460278B6480178B4480078FFF796FF3A
:1028600058E0D5F80100A849C1F801000846D0F8A1
:102870000110B1A002F050FAA34B5A7A5979587856
:10288000FFF784FF46E0D5F805009F49C1F8050031
:102890000846D0F80510AEA002F03EFA9A4B5A7ADC
:1028A00059795878FFF772FF34E0D5F80900964956
:1028B000C1F809000846D0F80910ABA002F02CFAC4
:1028C000914B5A7A59795878FFF760FF22E021E05E
:1028D00020E01EE01EE01DE01CE01BE01AE099F87D
:1028E0000010A7A002F018FA14E0A8A002F014FA51
:1028F00010E0D4F80700A17962792379CDE900329C
:10290000CDE90210E378A2782188A5A002F004FAAC
:1029100000E000BF00BF08F1010000F0FF083878B8
:1029200040453FF761AF002058E7A8480068401CC9
:10293000A64908607047A54800687047012080F3E9
:10294000138800BF00BFA248006800F4E060A149FE
:102950000843001D9E490860BFF3408F00BF00BFC1
:10296000FEE710B501219C48FFF777F828B1012157
:102970009948FFF783F8FFF7D8FF10BD7FB541F600
:102980001F45092401210220FEF773F8ADF8085015
:10299000ADF804400020ADF80A00ADF8060001A92A
:1029A0008D48FEF735FA012211468B48FEF7A7FD48
:1029B0001D208DF8000000208DF8010002208DF808
:1029C000020001208DF803006846FDF7A0FC0121FC
:1029D0008148FEF779FD7FBD08B50020009040F2E8
:1029E00025517E48FFF70EFA68B140F225517B4829
:1029F000FFF732FA7948FFF785F9C0B2009001215C
:102A0000684600F0FAF908BD70B505460E46002488
:102A10000DB9601E70BD00241BE0295D6F48FFF7F3
:102A20006DF900BF80216D48FFF7D6F90028F9D075
:102A3000022C0DD3285DFF280AD155216748FFF7E6
:102A40005DF900BF80216548FFF7C6F90028F9D07D
:102A5000641CB442E1D33046DCE700B587B0012105
:102A60000420FDF7F9FF01214804FEF702F80121D7
:102A70000846FDF7F1FF0420ADF8180018208DF886
:102A80001B0003208DF81A0006A95548FDF708FD24
:102A90000820ADF8180004208DF81B0006A9504846
:102AA000FDF7FEFC4FF4165002900020ADF80C002C
:102AB000ADF80E00ADF81000ADF814000C20ADF824
:102AC000120002A94548FFF720F8012240F22551E3
:102AD0004248FFF7B2F801214048FFF7A2F8402131
:102AE0003E48FFF786F926208DF8040000208DF877
:102AF000050001208DF806008DF8070001A8FDF7FC
:102B000006FC07B000BD0000500000204576743A76
:102B1000204556454E545F5247424C45445F4F4E08
:102B20004F4646202564200A0000000028000020AF
:102B3000290000202A0000204576743A4556454E6B
:102B4000545F5245445F4C45442025640A00000010
:102B50004576743A4556454E545F475245454E5F5B
:102B60004C45442025640A004576743A4556454E46
:102B7000545F424C55455F4C45442025640A000093
:102B8000525353492025640A000000005452414E1C
:102B900053504152454E545F44415441200A000075
:102BA000574946495F4E5450203A205B25642D25F5
:102BB000642D256420253032643A253032643A256C
:102BC0003032645D5B25645D200A00003C0000201B
:102BD0000CED00E00000FA05000400400044004055
:102BE0000008014010B504461CB9F9A002F094F8A1
:102BF00010BDE0686060E068A06000BFF8E710B555
:102C000004461CB9F2A002F087F810BD0020E06075
:102C10006060A060206000BFF7E710B504462CB9E3
:102C2000EBA002F079F84FF0FF3010BD2068FCE710
:102C300010B504462CB9E6A002F06EF84FF0FF3054
:102C400010BD6068A168884201D10020F8E7606883
:102C5000A168884203D2A0686168401AF0E7204664
:102C6000FFF7DBFF6168A268891A401AE8E770B5D0
:102C700004462CB9D6A002F04FF84FF0FF3070BDDB
:102C80002046FFF7CAFF05462046FFF7D1FF281A66
:102C9000F5E72DE9F04104460F46164600252CB90C
:102CA000CBA002F039F8681EBDE8F0812FB9CFA0A3
:102CB00002F032F84FF0FF30F6E76068A168884212
:102CC00014D22046FFF7B4FFB04201D9304602E0EB
:102CD0002046FFF7ADFF054661682A46384601F0F9
:102CE000B7FE6068284460602846DDE72046FFF7AD
:102CF00094FF6168E268891A401AB0420AD93546E1
:102D000061682A46384601F0A3FE60682844606086
:102D10002846C9E72046FFF780FF6168E268891A04
:102D2000451A61682A46384601F092FEE068606004
:102D3000721B79192046FFF7ACFF05442846B3E71C
:102D40002DE9F04104460F46154600262CB9AEA0E9
:102D500001F0E2FF701EBDE8F0812FB9B0A001F0D4
:102D6000DBFF4FF0FF30F6E72046FFF780FFA84279
:102D70000AD82046FFF77BFF80464146AEA001F00F
:102D8000CBFF4FF0FF30E6E76068A16888422AD8A1
:102D90002046FFF742FFA168E268891A461AB54249
:102DA00013D8A0682A46394601F052FEA06828448C
:102DB000A0602046FFF731FFE1680844A16888421F
:102DC00001D1E068A0602846C5E7A06832463946D0
:102DD00001F03EFEE068A060AA1BB9192046FFF78B
:102DE000AFFF3044B7E7A0682A46394601F030FE0D
:102DF000A0682844A0602846ADE770B504460D469B
:102E0000002624B992A001F087FF701E70BD2A46EB
:102E100021469848FFF794FF0646AE4205D096A09B
:102E200001F07AFF4FF0FF30F0E73046EEE72DE992
:102E3000F04104460D460027002604B135B9294665
:102E400094A001F069FF0020BDE8F081022603E0B4
:102E5000A05D3844C7B2761C681EB042F8D8384628
:102E6000F2E701B581B0694601AA50780870107880
:102E70004870BDF800000CBD0146080601F47F4211
:102E800040EA022001F47F0240EA122040EA116089
:102E900070472DE9F04104460E4600250027A8465C
:102EA0002CB98AA001F038FF681EBDE8F08100252A
:102EB0000AE0675D701B401E14F8008004F805806E
:102EC000701B401E27546D1CB5EB560FF1D300202C
:102ED000EBE710B503460020541AB4FBF3F010BD25
:102EE00010B50346002002FB031010BD2DE9F0478A
:102EF00004460E46154600273146284601F01EFEC0
:102F00008146214601F052FE804601F092FE0746BE
:102F10003846BDE8F0872DE9F04704460E461546D1
:102F20000027284601F080FE8146214601F00CFE74
:102F30008046314601F0B0FD07463846BDE8F087CF
:102F4000024612B102F0070028B9082901D8002072
:102F500070470120FCE702F00700C0F1080088423A
:102F600001D30020F4E70120F2E710B504462CB9A4
:102F700061A001F0D1FE4FF0FF3010BD00202060B5
:102F80006060FF20207060700020F6E770B5044696
:102F90000D462CB922A001F0BFFE4FF0FF3070BDEE
:102FA0001721604801F06DFD2A4621465D48801CCE
:102FB00001F04EFD5B4827380587012180F8281075
:102FC000FFF7B9FC57492739C1F83A000020E6E776
:102FD0004552524F523A20696E70757420726220C9
:102FE0006973204E554C4C0A000000004552524F68
:102FF000523A20696E70757420646174612069733F
:10300000204E554C4C0A00004552524F523A207205
:103010006220697320656D707479200A00000000D9
:103020004552524F523A20646174612069732065A1
:103030006D707479200A00004552524F523A206E4A
:103040006F206D656D6F7279202564200A00000085
:103050004552524F523A2067697A507574446174F0
:10306000612062756620697320656D707479200A2D
:10307000000000002E0100204552524F523A2046D7
:1030800061696C656420746F20726257726974653F
:10309000200A00004552524F523A2067697A507216
:1030A0006F746F636F6C53756D202C206275662092
:1030B000697320656D707479206F72206C656E2065
:1030C0006572726F72202564200A000067697A4277
:1030D0007974654F7264657245786368616E67657F
:1030E000204572726F72202C20496C6C6567616C90
:1030F00020506172616D0A004552524F523A20676A
:10310000697A50726F746F636F6C48656164496E61
:103110006974206865616420697320656D707479D5
:10312000200A0000AE0000202DE9FC5F05460C4699
:10313000164699460C9F4FF0000AD3460020019096
:103140008046B9F1000F00D037B9FCA001F0E4FDD2
:103150004FF0FF30BDE8FC9F3A464946684601F013
:1031600077FC012F0CD939466846FFF792FEB0F183
:10317000FF3F05D1FDA001F0CFFD4FF0FF30E9E7A3
:1031800031462046FFF7DCFE8246BAF1000F0CD133
:103190001DF8050004F007010841C6F10802FF21EF
:1031A0001141084040EA080821E0BAF1010F1ED1A0
:1031B000681C1DF8000004F00701C1F10801711A34
:1031C000C1F10802FF21114100EA010B1DF80500C1
:1031D00004F007010841019004F00700C0F1080164
:1031E0000BFA01F040EA0808019848EA0008404656
:1031F000B0E72DE9F05F05460E4690461C460A9F53
:103200004FF0000AD346D14634B9E5A001F084FD61
:103210004FF0FF30BDE8F09F41463046FFF790FE8B
:103220008146B9F1000F07D1605D06F0070107FA8A
:1032300001F1084360551EE0B9F1010F1BD1F8B24E
:1032400006F00701C1F1080140FA01FA06F0070093
:10325000C0F10801FF20084100EA070B681C205C50
:1032600040EA0A00691C6054605D06F007010BFA31
:1032700001F1084360550020CCE7F8B505460C463F
:1032800016460DB104B12EB9CFA001F045FD4FF0A7
:10329000FF30F8BD287800F0010098B110212278A5
:1032A000601C81542078401C207001206B1C024659
:1032B000002100900846FFF737FF08B1012000E029
:1032C000002030702878C0F3400068B111212278C6
:1032D000601C81542078401C2070AA7800210120B5
:1032E000FFF7FEFDC6F801002878C0F3800068B142
:1032F00012212278601C81542078401C2070EA78CA
:1033000000210120FFF7ECFDC6F805002878C0F386
:10331000C00068B113212278601C81542078401CC1
:1033200020702A7900210120FFF7DAFDC6F8090094
:103330000020AEE770B504460D46002604B12DB955
:10334000ACA001F0E9FC4FF0FF3070BD2878217887
:10335000884203D0B1A001F0DFFC0126D5F80100BE
:10336000D4F80110884203D0B3A001F0D5FC0126A7
:10337000D5F80500D4F80510884203D0B4A001F0B8
:10338000CBFC0126D5F80900D4F80910884203D0F7
:10339000B5A001F0C1FC01263046D6E738B5054698
:1033A0000C4605B12CB9B6A001F0B6FC4FF0FF30C9
:1033B00038BD00202070287823460122002100908B
:1033C0000846FFF716FF01212046FFF762FDD5F8FA
:1033D000012000210120FFF77CFD6070D5F8052059
:1033E00000210120FFF775FDA070D5F8092000210C
:1033F0000120FFF76EFDE0700020D9E72DE9F047CE
:1034000004460E4617461D46A0464FF0000998F8A0
:1034100008900CB107B135B9A5A001F07DFC4FF0C3
:10342000FF30BDE8F0871521AD4801F02AFBB9F166
:10343000010F06D0B9F1020F12D0B9F1050F45D135
:1034400021E0A74A3F32A64904F10900FFF715FF22
:103450000120A3493E39087000270020286036E08B
:103460009F495931A1F10D00FFF798FF38B99C48E9
:103470003E38D0F8970038600420286002E04FF012
:10348000FF30CEE723E0A6F10A0204F109019448D7
:103490002E3801F0DDFAA6F10A0091493E39C1F853
:1034A0001F000F218E483E3890F83E203F30815457
:1034B0003F3890F83E00401C89493E3981F83E0073
:1034C0000320087000270020286000E000BF00BF34
:1034D0000020A6E72DE9F04788B004468846164646
:1034E0000027BA46B946254614B1B8F1000F07D1F6
:1034F0007CA001F011FC4FF0FF3008B0BDE8F08770
:10350000D6B901A8FFF731FD2079401CC0B28DF873
:10351000080060798DF809000520FFF7A2FCADF8DE
:103520000600092101A8FFF782FC8DF80C000DF1BF
:10353000040A4FF0090913E1ECE0000067697A44DE
:1035400065636F6D7072657373696F6E56616C75CC
:1035500065204572726F72202C20496C6C65676122
:103560006C20506172616D0A0000000067697A4446
:1035700065636F6D7072657373696F6E56616C759C
:10358000652067697A427974654F7264657245781F
:103590006368616E6765204572726F72200A000071
:1035A00067697A436F6D707265737356616C756588
:1035B000204572726F72202C20496C6C6567616CBB
:1035C00020506172616D0A0067697A4461746150CC
:1035D0006F696E74324576656E74204572726F72D3
:1035E000202C20496C6C6567616C20506172616DA4
:1035F0000A00000067697A436865636B5265706F03
:103600007274204572726F72202C20496C6C656751
:10361000616C20506172616D0A00000076616C750A
:10362000655267624C65645F4F6E4F666620436803
:10363000616E6765640A000076616C756552656449
:103640005F4C6564204368616E6765640A00000032
:1036500076616C7565477265656E5F4C6564204385
:1036600068616E6765640A0076616C7565426C75A9
:10367000655F4C6564204368616E6765640A00009D
:1036800067697A44617461506F696E747332526510
:10369000706F727444617461204572726F72202C75
:1036A00020496C6C6567616C20506172616D0A0025
:1036B00067697A50726F746F636F6C497373756565
:1036C0006450726F63657373204572726F72202C41
:1036D00020496C6C6567616C20506172616D0A00F5
:1036E000C500002067697A50726F746F636F6C4910
:1036F00073737565644461746141636B20457272D4
:103700006F72202C20496C6C6567616C205061726F
:10371000616D0A0004A8FFF728FC2879401CC0B29C
:103720008DF8140068798DF81500B11D88B2FFF787
:1037300098FBADF81200287A401CC0B28DF8180032
:10374000324641460DF1190001F082F90E2104A81C
:10375000FFF76DFB8DF81D000DF1100A4FF00E09FB
:1037600049465046FFF750F90746002F04DA4A460B
:103770003946F74801F0D0FA3846BEE62DE9FF4158
:1037800005460E461746002436B9F2A001F0C4FAE9
:10379000601E04B0BDE8F0816846FFF7E6FB052037
:1037A0008DF80400F54890F82310D0F82300401C51
:1037B000F24AC2F82300C8B28DF805008DF808500F
:1037C0000A20FFF74EFBADF802003A4631460DF1F4
:1037D000090001F03DF90E216846FFF728FB8DF83E
:1037E0000D000E216846FFF70FF90446002C03DA9E
:1037F0002146E3A001F090FA0E216846FFF7C6FBD0
:103800002046C6E710B50446DC498A312046FFF75A
:1038100091FD012814D1E2A001F07EFAD749973139
:103820002046FFF7BBFD28B90422D4499731104642
:10383000FFF7A4FF0D222146D0488A3001F008F995
:10384000FFF779F8DC4990FBF1F201FB1200A0B917
:10385000DAA001F061FAC94997312046FFF79EFDD1
:1038600028B90422C54997311046FFF787FF0D227A
:103870002146C2488A3001F0EBF810BD2DE9FE4F19
:1038800080460E4617464FF0000B002002908146FE
:103890008246002534460090B8F1000F01D006B1F1
:1038A00037B9CCA001F038FA4FF0FF30BDE8FE8FF9
:1038B0004046FFF7BDF900F0FF0ABAF1000F02D150
:1038C0004FF0FF30F2E74FF000095DE0012201A95F
:1038D0004046FFF7DEF98346BBF1000F52D0C948DE
:1038E0000078FF281FD19DF80400FF281BD1C6488F
:1038F000007848B9FF20207060700220C34908801A
:103900000120C149087034E0C0480088042830DD37
:10391000BE480088A8422CD0FF2020706070022092
:10392000BA49088025E0B7480078FF2803D19DF800
:10393000040055281DD0B4480078012819D19DF8FD
:103940000400B24909886054B0480088401CAF495F
:1039500008800846008804280BDD0094009C6088DD
:10396000FFF77FFA001D85B2A8480088A84200D161
:103970000CE09DF80400A3490870A5480078401C9D
:10398000A349087009F10109D1459FDB00BF9F4899
:103990000088042823DD9D480088A8421FD19B4849
:1039A00001882046FFF743FA029098480088401E9D
:1039B000215C029881420FD12A462146304601F00F
:1039C00047F83D8000209049087090490880904950
:1039D00008708C49087069E76FF0010066E7012004
:1039E00064E710B50024654890F8280000B910BDC0
:1039F00088A001F091F96148018F2930FFF704F8A0
:103A000004465E48008FA04202D08AA001F084F9EB
:103A1000FEF791FF5949C1F83A0000BFE7E770B5DA
:103A20000446564D293534B9AFF60C2001F074F92F
:103A30004FF0FF3070BD2879401C2179884204D1B5
:103A400017214E48273001F01CF80020F2E73EB560
:103A50000446002524B97EA001F05EF9681E3EBD33
:103A600020680090606801909DF80400401CC0B27E
:103A70008DF804000520FFF7F4F9ADF802000921E4
:103A80006846FFF7D4F98DF8080009216846FEF76B
:103A9000BBFF0546002D03DA294639A001F03CF9A9
:103AA0002846DCE710B5354890F82800012828D1D1
:103AB000324890F8270002281EDAFEF73CFF2F4913
:103AC000D1F83A10401AB0F5FA6F1AD9FEF733FF61
:103AD00004462A4890F82730D0F83A20214667A0BB
:103AE00001F01AF9FFF77DFF244890F82700401CE9
:103AF000224981F8270004E017212048273000F0F0
:103B0000C0FF10BD30B59DB0044600252CB965A09E
:103B100001F002F9681E1DB030BD6846FFF725FAB6
:103B200002208DF8040060798DF8050069A103C9B1
:103B3000CDE902016AA103C9CDE904016BA103C962
:103B4000CDE908016CA103C9CDE906012022D9E025
:103B50009C50000867697A5265706F727444617492
:103B600061204572726F72202C20496C6C65676110
:103B70006C20506172616D0A000000008700002017
:103B80004552524F523A20756172742077726974AF
:103B900065206572726F72202564200A00000000A3
:103BA0006368616E6765642C207265706F72742043
:103BB000646174610A000000C0270900496E666FE5
:103BC0003A2036303053207265706F727420646111
:103BD00074610A0067697A50726F746F636F6C4723
:103BE00065744F6E655061636B6574204572726FCA
:103BF00072202C20496C6C6567616C205061726189
:103C00006D0A00004800002044000020460000200B
:103C1000490000205761726E696E673A2074696DC1
:103C2000656F75742C20726573656E6420646174B1
:103C300061200A004552524F523A20726573656EF8
:103C4000642064617461206572726F720A00000002
:103C50004552524F523A2067697A50726F746F63BF
:103C60006F6C436F6D6D6F6E41636B206461746147
:103C700020697320656D707479200A005761726E37
:103C8000696E673A67697A50726F746F636F6C52CE
:103C90006573656E64446174612025642025642029
:103CA00025640A0067697A50726F746F636F6C479E
:103CB0006574446576696365496E666F2045727206
:103CC0006F72202C20496C6C6567616C20506172AA
:103CD000616D0A0030303030303030340000000088
:103CE000303030303030303200000000303330318E
:103CF000303130310000000030333031303130307D
:103D000000000000F7A10AA800F0A2FE2022FEA1F8
:103D10000DF1520000F09CFE0020CDF84A00CDF8D5
:103D20004E009DF851008DF851009DF8510040F073
:103D300002018DF851100020FFF793F8ADF848000C
:103D40006F20FFF78EF8ADF8020073216846FFF789
:103D50006EF88DF8720073216846FEF755FE054631
:103D6000002D04DA2946AFF2E81000F0D5FF28460E
:103D7000D1E6FEB504460E46002524B9EBA000F0BE
:103D8000CBFF681EFEBD6846FFF7EFF812208DF8E6
:103D9000040060798DF805000620FFF762F8ADF8A1
:103DA00002008DF808600A216846FFF740F88DF898
:103DB00009000A216846FEF727FE0546002D04DAB1
:103DC0002946AFF2442000F0A7FF2846DAE770B595
:103DD00004460026254624B9DFA000F09DFF701E92
:103DE00070BDE348A968C161E9680162298A8184DC
:103DF000A97C80F82610A0F18001B1F89C00FFF7A3
:103E000030F8DB498039A1F89C00D1F8A300FFF716
:103E100033F8D7498039C1F8A3000E21D44880383F
:103E200090F8682069308154693890F86800401C27
:103E3000CF49803981F86800042008700020CFE75E
:103E400010B5FEF778FD044600BFFEF774FD001BB9
:103E5000B0F5167FF9D9FEF771FD10BD10B5044617
:103E60002CB9C4A000F058FF4FF0FF3010BD2089DE
:103E7000FEF7F7FF2081CB480078C0F38000217A5D
:103E8000C1F3800188425ED0207AC0F38000002810
:103E90002DD0207A00F0010088B10021B44880388C
:103EA00090F8532054308154543890F85300401CFB
:103EB000AF49803981F85300BBA000F02DFF207A74
:103EC000C0F3400000283ED00121A948803890F876
:103ED000532054308154543890F85300401CA44966
:103EE000803981F85300B8A000F016FF2BE0207A4B
:103EF00000F0010088B100219D48803890F85320DF
:103F000054308154543890F85300401C98498039FB
:103F100081F85300A4A000F0FFFE207AC0F3400017
:103F200088B102219248803890F85320543081544F
:103F3000543890F85300401C8D49803981F8530063
:103F4000A8A000F0E9FE97480078C0F3C000217AED
:103F5000C1F3C001884230D0207AC108914800885E
:103F600061F3C3008F490880207AC0F3C00090B18C
:103F700003217F48803890F85320543081545438BE
:103F800090F85300401C7A49803981F853009CA076
:103F900000F0C2FE11E004217548803890F85320EB
:103FA00054308154543890F85300401C7049803983
:103FB00081F853009AA000F0AFFE7A480078C0F371
:103FC0000010217AC1F30011884230D0207A010913
:103FD0007448008861F3041072490880207AC0F3A5
:103FE000001090B105216248803890F85320543079
:103FF0008154543890F85300401C5D49803981F851
:1040000053008FA000F088FE11E006215848803848
:1040100090F8532054308154543890F85300401C89
:104020005349803981F853008DA000F075FE5D483A
:104030000078C0F34010217AC1F34011884230D09B
:10404000207A41095748008861F345105549088096
:10405000207AC0F3401090B107214548803890F88D
:10406000532054308154543890F85300401C404938
:10407000803981F8530083A000F04EFE11E0082142
:104080003B48803890F8532054308154543890F88D
:104090005300401C3649803981F8530080A000F05D
:1040A0003BFE40480088C0F3C0202189C1F3C021F5
:1040B000884215D02089C10A3A48008861F3CB2094
:1040C000384908802089C0F3C02040B10B2128481E
:1040D000803890F85320543081545438F0E0F9E09F
:1040E00008E1000035646664656135386136623523
:1040F000343863653930316438376566343634377F
:1041000034383965000000006130666464386361EA
:1041100037373132343030373937373966323762F2
:1041200062623838613734310000000067697A50C4
:10413000726F746F636F6C4572726F72436D64203F
:104140004572726F72202C20496C6C6567616C201F
:10415000506172616D0A00004552524F523A204E32
:10416000545020697320656D707479200A00000036
:104170000701002067697A50726F746F636F6C4D2E
:104180006F64756C65537461747573204572726FDA
:1041900072202C20496C6C6567616C2050617261E3
:1041A0006D0A00004A0000204F6E426F6172646920
:1041B0006E673A20536F66744150206F72205765C6
:1041C00062206D6F64650A004F6E426F61726469B0
:1041D0006E673A204169724C696E6B206D6F646541
:1041E0000A0000004F6E426F617264696E673A2088
:1041F00053746174696F6E206D6F64650A0000000E
:1042000057694669207374617475733A20696E202A
:1042100062696E64696E67206D6F64650A000000F4
:1042200057694669207374617475733A206F7574A9
:104230002062696E64696E67206D6F64650A0000B4
:1042400057694669207374617475733A20636F6EA1
:104250006E656374656420726F757465720A000020
:1042600057694669207374617475733A2064697381
:10427000636F6E6E656374656420726F75746572CA
:104280000A00000057694669207374617475733AB7
:1042900020636F6E6E6563746564206D326D0A0015
:1042A00057694669207374617475733A2064697341
:1042B000636F6E6E6563746564206D326D0A000015
:1042C00090F85300401CF54981F85300F4A000F029
:1042D00023FD0FE00C21F14890F853205430815415
:1042E000543890F85300401CEC4981F85300F3A077
:1042F00000F012FDF9480088C0F300302189C1F3B5
:10430000003188422CD02089010BF448008861F3E9
:104310000C30F24908802089C0F3003080B10921B7
:10432000DE4890F8532054308154543890F85300AC
:10433000401CDA4981F85300E9A000F0EDFC0FE0E1
:104340000A21D64890F8532054308154543890F8BC
:104350005300401CD14981F85300E8A000F0DCFC78
:104360000D21CE4890F8532054308154543890F8A1
:104370005300401CC94981F853002089C0F3022032
:1043800081F89B00084690F89B10E3A000F0C4FC65
:104390000220C2490870002068E510B51E20E249DD
:1043A0000860E248C8600846FEF71CFCA721BB482D
:1043B00000F067FB10BD30B587B005460024052D21
:1043C0007ED2DFE805F003316193C10001A8FEF75A
:1043D000CCFD0B208DF80800B04890F82310D0F8E1
:1043E0002300401CAD4AC2F82300C8B28DF8090072
:1043F0000520FEF736FDADF80600092101A8FEF7FD
:1044000016FD8DF80C00092101A8FEF7FDFA0446FF
:10441000002C04DA2146AFF6980000F07DFC09215B
:1044200001A8FEF7B3FDC1E004A8FEF79EFD092038
:104430008DF81400994890F82310D0F82300401C00
:10444000964AC2F82300C8B28DF815008DF81850AE
:104450000620FEF706FDADF812000A2104A8FEF7BB
:10446000E6FC8DF819000A2104A8FEF7CDFA0446EF
:10447000002C04DA2146AFF6F80000F04DFC0A21CA
:1044800004A8FEF783FD91E004A8FEF76EFD092065
:104490008DF81400814890F82310D0F82300401CB8
:1044A0007E4AC2F82300C8B28DF815008DF8185066
:1044B0000620FEF7D6FCADF812000A2104A800E0A1
:1044C00070E0FEF7B4FC8DF819000A2104A8FEF78D
:1044D0009BFA0446002C04DA2146AFF65C1000F08B
:1044E0001BFC0A2104A8FEF751FD5FE001A8FEF7BE
:1044F0003CFD13208DF80800684890F82310D0F890
:104500002300401C654AC2F82300C8B28DF8090098
:104510000520FEF7A6FCADF80600092101A8FEF76C
:1045200086FC8DF80C00092101A8FEF76DFA0446FF
:10453000002C04DA2146AFF6B81000F0EDFB09219B
:1045400001A8FEF723FD31E001A8FEF70EFD1520BE
:104550008DF80800514890F82310D0F82300401C33
:104560004E4AC2F82300C8B28DF809000520FEF7B4
:1045700078FCADF80600092101A8FEF758FC8DF87B
:104580000C00092101A8FEF73FFA0446002C04DACA
:104590002146AFF6142000F0BFFB092101A8FEF769
:1045A000F5FC03E062A000F0B7FB00BF00BF2046AF
:1045B00007B030BD3EB500246846FEF7D6FC172094
:1045C0008DF80400354890F82310D0F82300401CE3
:1045D000324AC2F82300C8B28DF805000520FEF764
:1045E00040FCADF8020009216846FEF720FC8DF87A
:1045F000080009216846FEF707FA0446002C03DA92
:10460000214651A000F088FB09216846FEF7BEFC58
:104610003EBDF0B58BB00446002500270020029077
:10462000019000262CB951A000F076FB681E0BB05B
:10463000F0BDFFF737FA02AA1849491C3A48FFF7BC
:104640001DF90546002D1FD152A000F065FB134E49
:10465000761C30790D2818D00EDC072816D006DC21
:10466000012814D0032813D0062812D1BEE00A284E
:1046700010D00C280DD1BBE014280CD00CDC0F2876
:104680000BD0112805D1C1E0DBE0A8E0A3E090E069
:1046900093E0CDE0ABE0BAE086E0AEE0870000203A
:1046A00057694669207374617475733A206170703C
:1046B00020636F6E6E6563740A0000005769466977
:1046C000207374617475733A206E6F20617070206E
:1046D000636F6E6E6563740A000000004A0000207C
:1046E00057694669207374617475733A20696E2046
:1046F00074657374206D6F64650A000057694669BC
:10470000207374617475733A206F757420746573C7
:1047100074206D6F64650A005253534920697320F9
:104720002564200A000000002E0100203E01002028
:104730004552524F523A204366674D6F646520657B
:1047400072726F72210A00004552524F525B4E54F2
:10475000505D3A20756172742077726974652065C6
:1047600072726F72202564200A00000047697A7710
:1047700069747348616E646C65204572726F722053
:104780002C20496C6C6567616C20506172616D0A08
:1047900000000000476574204F6E65205061636B18
:1047A0006574210A00000000162822D018283FD185
:1047B00034E03046FFF7A6F942E001AB03AABDF8AA
:1047C00008107848FEF71AFE20B903A93046019A6E
:1047D000FEF780FE34E03046FFF739F930E030462E
:1047E000FFF735F93046FFF739FB29E000BF00BF7E
:1047F00000BF3046FFF713F922E03046FFF727F9F4
:1048000069A000F089FAFFF71BFB19E018E03046B9
:10481000FFF705F969A000F07FFA11E03046FFF7D5
:10482000FEF83046FFF7D3FA6CA000F075FA07E007
:1048300002213046FFF79DFA6EA000F06DFA00BF2E
:104840000DE015F1020F0AD1564E01213046FFF757
:1048500090FA6EA000F060FA6FF00100E7E65148B0
:10486000401E0078012806D0022814D0032822D048
:1048700004283CD12BE000204A49491E08700D2233
:104880007D31A1F13F00FDF79BFF152145483D30EB
:1048900000F0F7F82BE000204249491E0870012281
:1048A0009B31A1F14800FDF78BFF15213D485230A7
:1048B00000F0E7F81BE000203A49491E087008465E
:1048C000D0F81F2010313E30FDF77AFF0FE00020B6
:1048D0003449491E08700B229C31A1F13400FDF7C8
:1048E0006FFF15212F48673000F0CBF800BF00BFE5
:1048F0002046FEF787FF002099E62DE9FF41064696
:104900000F464FF000083EB947A000F005FA4FF0FF
:10491000FF3004B0BDE8F0816C46B81D85B2FF20C1
:1049200004F8010B04F8010B281204F8010B04F839
:10493000015B052004F8010B1A48401E90F8231073
:10494000D0F82300401C174A521EC2F8230004F876
:10495000011B002004F8010B04F8010B062004F8E9
:10496000010B3A4631460DF1090000F071F8291D9E
:104970006846FEF75CFA0146E81C0DF80010291D98
:104980006846FEF741F88046B8F1000F04DA414668
:10499000AFF6146000F0C0F9291D6846FEF7F6FA7C
:1049A0000020B6E7880000207265706F72743A4D7F
:1049B0004355207265626F6F74210A0041636B205A
:1049C00050524F44554354494F4E5F4D4F4445203C
:1049D00073756363657373200A00000041636B2085
:1049E0004745545F55545420737563636573732052
:1049F0000A0000004552524F523A20636D64206312
:104A00006F6465206572726F72210A004552524FC1
:104A1000523A20636865636B2073756D206572720E
:104A20006F72210A000000005B4572726F725D2098
:104A300067697A77697473506173737468726F759C
:104A4000676844617461204572726F72200A0000C9
:104A500040EA01039B0703D009E008C9121F08C000
:104A6000042AFAD203E011F8013B00F8013B521E80
:104A7000F9D27047D2B201E000F8012B491EFBD2F7
:104A800070470022F6E710B513460A460446194659
:104A9000FFF7F0FF204610BDF0B480EA0102D40F0A
:104AA0004200B2EB410F02D20246084611464A00CC
:104AB00042D0C30DDDB2C1F3C752AD1A202D35DA95
:104AC000C1F3160141F4000204B15242C5F12006BF
:104AD00002FA06F12A411044B3EBD05F23D0C4B1EF
:104AE000012DA0EBC35009DCF0BC4FF0004202EAFC
:104AF000C352DBB200F5000000F0CEB8400000F178
:104B0000807000EBC350A0F1807040EAD170490082
:104B100009E0490841EAC071A0EBC35000F500006C
:104B2000400800EBC350F0BC00F0ADB86142012278
:104B300002EB4101001BF6E7F0BC704781F0004139
:104B4000AAE780F00040A7E780EA010210B502F072
:104B50000043400022D04A001FD0010E01EB126139
:104B6000C0F35600C2F3560240F4000042F40002C3
:104B7000A0FB022000047F39140400D0401C50EA3E
:104B8000124001D44000491EC2B20C0604EBD01002
:104B9000401C4008802A02D003E0002010BD20F015
:104BA0000100002900DA0020184310BD30B480EA6B
:104BB000010202F0004530F0004221F0004013D025
:104BC00090B1C30DD40DC2F31601C0F31600E41A60
:104BD00041F4000140F400027D34914201D3641C91
:104BE00000E04900002C02DA30BC002070474FF48E
:104BF00000000023914201D3891A034340084FEA81
:104C00004101F7D151B1914202D14FF0004105E08D
:104C100002D24FF0010101E06FF0010103EBC4503B
:104C2000284430BC00F02FB896230022114600F033
:104C300033B820F00040C10DC0F3160040F400006E
:104C40007F2901DA00207047962903DCC1F1960123
:104C5000C840704796398840704730B50B460146CA
:104C600000202022012409E021FA02F59D4205D30B
:104C700003FA02F5491B04FA02F52844151EA2F1B5
:104C80000102F1DC30BD0029A8BF7047401C49007B
:104C900008BF20F00100704710B4B0FA80FC00FAA1
:104CA0000CF050EA010404BF10BC704749B1CCF1CC
:104CB000200421FA04F411FA0CF118BF0121214358
:104CC0000843A3EB0C01CB1D4FEA00614FEA102013
:104CD00042BF002010BC704700EBC35010440029B5
:104CE000A4BF10BC7047401C490008BF20F0010061
:104CF00010BC7047064C074D06E0E06840F0010329
:104D000094E8070098471034AC42F6D3FBF7F2F969
:104D1000E0500008005100080FB4054B10B503A97E
:104D2000044A029800F018F810BC5DF814FB00006B
:104D3000D52500084C00002002E008C8121F08C159
:104D4000002AFAD170477047002001E001C1121F0C
:104D5000002AFBD1704700002DE9FF4F8BB0884639
:104D60000546002606E025280BD0DDE90D12904708
:104D70006D1C761C28780028F5D10FB03046BDE8B0
:104D8000F08F0024A146A2460122AE4900E0044370
:104D900015F8013F203B02FA03F00842F7D12878CA
:104DA0002A2810D06FF02F022878A0F130010929AD
:104DB00015D809EB890102EB410144F0020400EB34
:104DC00001096D1CF0E758F8041B5FEA010903D5DF
:104DD00044F40054C9F1000944F002046D1C287821
:104DE0002E2817D115F8010F44F004042A280ED0FC
:104DF0006FF02F022878A0F1300109290AD80AEBB8
:104E00008A0102EB410100EB010A6D1CF2E758F840
:104E100004AB6D1C28786C280FD006DC4C2817D00A
:104E200068280DD06A2814D104E0742810D07A289C
:104E30000FD10DE044F400140AE044F4801401E0C2
:104E400044F440146978814202D104F580146D1C49
:104E50006D1C2878692865D006DC00288DD0632871
:104E600027D0642806D15DE06E2808D073282AD0A8
:104E7000752877D0DDE90D129047761CE0E0C4F389
:104E80000250022809D003280DD0D8F800100428B9
:104E90000DD00E6008F10408D2E0D8F80010F21727
:104EA000C1E90062F6E7D8F800100E80F2E70E7054
:104EB000F0E718F8041B8DF8001000208DF80100B1
:104EC000EB46012003E058F804BB4FF0FF306107C8
:104ED0004FF0000701D40AE07F1C57450DDA8742E6
:104EE000FADB1BF807100029F6D106E07F1C874289
:104EF000FCDB1BF807100029F8D1DDE90D23A9EB35
:104F000007008146214600F0B1F83044C61904E09C
:104F1000DDE90D121BF8010B90477F1EF8D22146E8
:104F2000484688E058F8040BC4F302514FF00A0BCE
:104F3000032900D100B2042900D140B2002802DACE
:104F400040422D2102E0210505D52B218DF82410AA
:104F5000012104E006E0E10710D02021F6E708AFC8
:104F6000089113E058F8040BC4F302514FF00A0BF8
:104F7000032900D180B2042900D1C0B20021EEE79C
:104F80005946FFF76AFE303107F8011D0028F7D1B6
:104F9000ADEB070000F1200B600702D524F480344C
:104FA00001E04FF0010ADA4502DDAAEB0B0000E058
:104FB0000020824600EB0B0108980144A9EB010098
:104FC0000A90E00306D4DDE90D2321460A9800F09B
:104FD0004DF806444FF0000908E009A911F809004E
:104FE000DDE90D12904709F10109761C0899894500
:104FF000F3DBE0030CD5DDE90D2321460A9800F030
:1050000035F8064404E0DDE90D1230209047761CA7
:10501000BAF10001AAF1010AF5DC05E0DDE90D12A3
:1050200017F8010B9047761CBBF10001ABF1010BA7
:10503000F4DC0A982146DDE90D2300F005F806446A
:105040006D1C97E6092801002DE9F0410446002572
:105050001E461746880404D405E039462020B04790
:105060006D1C641EF9D52846BDE8F0812DE9F0419C
:10507000044600251E469046C80301D5302700E0AF
:105080002027880404D505E041463846B0476D1C0A
:10509000641EF9D52846BDE8F08100004552524F04
:1050A000523A2067697A50726F746F636F6C4973FC
:1050B000737565644461746141636B2075617274DA
:1050C000207772697465206572726F722025642082
:1050D000646174614C656E202564200A0000000044
:1050E000005100080000002050000000384D00086A
:1050F000505100085000002010110000484D0008D9
:1051000000A24A04000000000000000001020304A5
:10511000060708090000000001020304010203045D
:10512000060708090204060800000000000000004D
:105130000000000000000000FF0000000000000070
:10514000000000000000000000000000000000005F
:0400000508000101ED
:00000001FF
