:020000040800F2
:100000002004002045010008DD050008D505000892
:10001000D90500085F040008E30B00080000000099
:10002000000000000000000000000000BD07000804
:10003000630400080000000065060008A908000825
:100040005F0100085F0100085F0100085F01000810
:100050005F0100085F0100085F0100085F01000800
:100060005F0100085F0100085F0100085F010008F0
:100070005F0100085F0100085F0100085F010008E0
:100080005F0100085F0100085F0100085F010008D0
:100090005F0100085F0100085F0100085F010008C0
:1000A0005F0100085F0100085F0100085F010008B0
:1000B0007D0900085F0100085F0100085F0100087A
:1000C0005F0100085F0100085F0100085F01000890
:1000D0005F010008D50900085F0100085F01000802
:1000E0005F0100085F0100085F0100085F01000870
:1000F0005F0100085F0100085F0100085F01000860
:100100005F0100085F0100085F0100085F0100084F
:100110005F0100085F0100085F0100085F0100083F
:100120005F0100085F0100085F0100085F0100082F
:10013000DFF80CD000F072F9004800474D0F0008BE
:10014000200400200648804706480047FEE7FEE7F7
:10015000FEE7FEE7FEE7FEE7FEE7FEE7FEE7FEE777
:100160001D090008310100082DE9F04D81EA030462
:1001700004F0004B21F0004514464FF0000A23F034
:10018000004150EA050220D054EA01021DD0C5F317
:100190000A570246C5F31303C1F31300C1F30A560D
:1001A00040F4801543F48013A7EB0608101BD646D5
:1001B00008F2FD3873EB050002D308F1010801E0F5
:1001C00092185B41B8F1000F03DA00200146BDE848
:1001D000F08D00204FF48011064684460EE0171B78
:1001E00073EB050705D3121B63EB050306434CEACB
:1001F000010C49084FEA300092185B4150EA0107B0
:10020000EDD152EA030012D082EA040083EA05012C
:10021000084305D0101BAB4106D20122002306E0A3
:1002200000224FF0004302E06FF0010253101AEB7E
:1002300006004CEB085110EB0A0041EB0B01BDE846
:10024000F04D00F08EB896230022114600F05BB806
:10025000C1F30A5210B5C1F3130140F2FF3341F468
:1002600080119A4201DA002010BD40F233439A42D5
:10027000A2F2334203DC524200F02CF810BD904051
:1002800010BD00F0004230F000400AD0C10D01F571
:100290006071C0F3160042EA0151C20840071143E1
:1002A000704700200146704730B50B4601460020DC
:1002B0002022012409E021FA02F59D4205D303FA28
:1002C00002F5491B04FA02F52844151EA2F10102A9
:1002D000F1DC30BD202A04DB203A21FA02F00021B3
:1002E000704721FA02F3D040C2F120029140084346
:1002F000194670470029A8BF7047401C490008BF35
:1003000020F00100704710B4B0FA80FC00FA0CF045
:1003100050EA010404BF10BC704749B1CCF120047D
:1003200021FA04F411FA0CF118BF0121214308430A
:10033000A3EB0C01CB1D4FEA00614FEA102042BF36
:10034000002010BC704700EBC35010440029A4BF2C
:1003500010BC7047401C490008BF20F0010010BCD1
:10036000704710B5141E73F1000408DA401C41F107
:10037000000192185B411A4301D120F0010010BD29
:100380002DE9F04D92469B4611B1B1FA81F202E09F
:10039000B0FA80F22032904600F052F804460F4640
:1003A00040EA0A0041EA0B0153465A46084313D07B
:1003B000114653EA010019D0C8F140025046FFF738
:1003C00089FF05460E4650465946424600F038F829
:1003D000084305D0012004E020463946BDE8F08DF1
:1003E0000020054346EAE0762C4337430A9863052C
:1003F000E40AA0EB08000022FD0A44EA47540A3050
:1004000002D500200146E9E7010510196941DDE93F
:10041000084500196941BDE8F04DA2E7064C074DBB
:1004200006E0E06840F0010394E8070098471034C4
:10043000AC42F6D3FFF780FEF40F0008141000085A
:10044000202A04DB203A00FA02F100207047914094
:10045000C2F1200320FA03F319439040704700BF14
:10046000FEE770472DE9F0410246002500260020F6
:1004700000230024002791F803C00CF00F0591F829
:1004800003C00CF0100CBCF1000F03D091F802C0B7
:100490004CEA050591F800C0BCF1000F31D014689A
:1004A00000202BE04FF0010C0CFA00F3B1F800C073
:1004B0000CEA03069E4220D183004FF00F0C0CFA89
:1004C00003F7BC4305FA03FC4CEA040491F803C0AB
:1004D000BCF1280F06D14FF0010C0CFA00FCC2F859
:1004E00014C00AE091F803C0BCF1480F05D14FF0E9
:1004F000010C0CFA00FCC2F810C0401C0828D1D333
:100500001460B1F800C0BCF1FF0F34DD5468002066
:100510002EE000F1080C4FF0010808FA0CF3B1F8D6
:1005200000C00CEA03069E4221D183004FF00F0C5D
:100530000CFA03F7BC4305FA03FC4CEA040491F8F7
:1005400003C0BCF1280F05D100F1080C08FA0CF823
:10055000C2F8148091F803C0BCF1480F07D100F134
:10056000080C4FF0010808FA0CF8C2F81080401C83
:100570000828CED35460BDE8F0810246002093687D
:100580000B400BB1012000E0002070474161704733
:100590000161704708B50121042000F065F80420CE
:1005A000ADF8000010208DF8030001208DF8020046
:1005B00069460748FFF756FF0820ADF800004820BD
:1005C0008DF8030069460248FFF74CFF08BD0000A4
:1005D0000008014000BFFEE700BFFEE770470000D3
:1005E00070B5002100230F22C47804B3154C246891
:1005F00004F4E064C4F5E064210AC1F10403CA40D4
:10060000447804FA03F184781440214309010E4C24
:100610000678A155047804F01F050124AC40057844
:100620006D11AD0005F1E025C5F8004109E0047841
:1006300004F01F050124AC40044D0678761145F8FE
:10064000264070BD0CED00E000E400E080E100E039
:1006500002490143024A1160704700000000FA0598
:100660000CED00E07047000029B1064A9269024390
:10067000044B9A6104E0034A92698243014B9A61F8
:10068000704700000010024030B500210022002415
:1006900000232D4D6D6805F00C0121B1042905D012
:1006A000082923D105E0294D056022E0274D05608A
:1006B0001FE0254D6D6805F47012234D6D6805F43B
:1006C0008034022505EB92421CB9214D554305604B
:1006D0000BE01D4D6D6805F400351DB11C4D5543F3
:1006E000056002E0194D5543056002E0174D0560B5
:1006F00000BF00BF144D6D6805F0F0010909154DEC
:100700006B5C0568DD4045600F4D6D6805F4E06188
:10071000090A104D6B5C4568DD4085600A4D6D68C7
:1007200005F46051C90A0B4D6B5C4568DD40C5603E
:10073000054D6D6805F44041890B074D6B5CC5683C
:10074000B5FBF3F5056130BD0010024000127A00E0
:1007500000093D00000000201000002070B5064692
:10076000002404211448FFF711FF00BF082112489C
:10077000FFF703FF0028F9D1002511E004210E48FE
:10078000FFF706FF640004210B48FFF7FFFE082176
:100790000948FFF7F2FE08B144F00104681CC5B235
:1007A000182DEBDB04210448FFF7F2FE0421024878
:1007B000FFF7ECFE204670BD00080140704710B501
:1007C00000F002F810BD00000CB500200190009070
:1007D0003348006840F480303149086000BF304839
:1007E000006800F4003000900198401C01900098CF
:1007F00018B90198B0F5A06FF1D12948006800F44C
:10080000003010B10120009001E00020009000981D
:10081000012843D12348006840F0100021490860B6
:100820000846006820F0030008600846006840F0B1
:10083000020008601A484068194948600846406844
:1008400048600846406840F4806048600846406858
:1008500020F47C1048600846406840F4E810486086
:100860000846006840F08070086000BF0C480068CF
:1008700000F000700028F9D00948406820F003001B
:10088000074948600846406840F00200486000BFE1
:100890000348406800F00C000828F9D10CBD0000A6
:1008A000001002400020024000B500F087F800BDB3
:1008B00030B54821B1F1807F01D301201DE021F046
:1008C0007F40401E4FF0E022506150170F22002859
:1008D00007DA13071D0E0F4B00F00F04241F1D55E0
:1008E00003E013071C0E0C4B1C5400BF00204FF0FC
:1008F000E022906107201061002008B100BFFEE7F0
:100900004FF0E020006920F001004FF0E021086185
:1009100030BD000018ED00E000E400E010B5134821
:10092000006840F00100114908600846406810491D
:1009300008400E494860084600680E4908400B49C7
:1009400008600846006820F4802008600846406877
:1009500020F4FE0048604FF41F008860FFF72FFF6F
:100960004FF000600449086010BD00000010024014
:100970000000FFF8FFFFF6FE08ED00E010B50121D2
:10098000880700F009F818B10121880700F001F884
:1009900010BDCA430282704730B5024600200023D2
:1009A0000024158A05EA0103958905EA010413B1BB
:1009B0000CB1012000E0002030BD000004480068B8
:1009C00020B103480068401E0149086070470000DC
:1009D0001400002010B540F22551094800F03CF801
:1009E00060B140F22551064800F00EF8044800F0CE
:1009F000EFF8C4B2214603A000F04EF910BD00008C
:100A0000003801402563000010B50022002340F6A5
:100A10006A14A14200D100BF0A1201249440A3B27B
:100A2000DC43048010BD21B1828942F400528281EE
:100A300004E082894DF6FF731A40828170470246B6
:100A40000020B1F5007F00D100BF13880B400BB12F
:100A5000012000E00020704770B50246002400230A
:100A60000025002040F66A16B14200D100BFC1F354
:100A7000421501F01F03012606FA03F3012D02D1EE
:100A80009689334006E0022D02D1168A334001E0F8
:100A9000968A33400C12012606FA04F41688344074
:100AA00013B10CB1012000E0002070BDF0B5034689
:100AB000002400260025002040F66A17B94200D124
:100AC00000BF1846C1F3421401F01F06012707FAC0
:100AD00006F5012C01D10C3004E0022C01D11030BC
:100AE00000E014301AB107682F43076002E007687E
:100AF000AF430760F0BD00002DE9F04786B0054622
:100B00000E460024A24600BFA1460027B08900B1CE
:100B100000BF2F462C8A4CF6FF700440F088044337
:100B20002C82AC894EF6F3100440B088318908431A
:100B3000718908430443AC81AC8A4FF6FF400440FE
:100B4000B0890443AC8201A8FFF79EFD1F4887428D
:100B500002D1DDF810A001E0DDF80CA0A88900F4B6
:100B6000004040B10AEBCA0000EB0A1031684900AE
:100B7000B0FBF1F807E00AEBCA0000EB0A1031689D
:100B80008900B0FBF1F86420B8FBF0F00401200903
:100B9000642101FB1089A88900F4004040B1322093
:100BA00000EBC900B0FBF1F000F00700044308E0DF
:100BB000322000EB09106421B0FBF1F000F00F00CF
:100BC00004432C8106B0BDE8F087000000380140E6
:100BD00001468888C0F308007047C1F3080282808C
:100BE000704700BFFEE7000010B586B00446012143
:100BF00044F20400FFF738FD4FF40070ADF8140024
:100C000018208DF8170003208DF8160005A920483C
:100C1000FFF728FC4FF48060ADF8140004208DF835
:100C2000170003208DF8160005A91948FFF71AFCD4
:100C300001940020ADF80800ADF80A00ADF80C00F2
:100C4000ADF810000C20ADF80E0001A91148FFF717
:100C500053FF25208DF8000000208DF801000220B0
:100C60008DF8020001208DF803006846FFF7B8FCFC
:100C7000012240F225510748FFF718FF01210548DE
:100C8000FFF7D1FE40210348FFF7D9FE06B010BDA3
:100C900000080140003801400FB4054B10B503A90E
:100CA000044A029800F018F810BC5DF814FB00002C
:100CB000CD0E00081800002002E008C8121F08C16D
:100CC000002AFAD170477047002001E001C1121FCD
:100CD000002AFBD1704700002DE9FF4F8BB09A46E8
:100CE0000F460546002606E025280BD052460D99F2
:100CF00090476D1C761C28780028F5D10FB030463F
:100D0000BDE8F08F0024A0460122604900E00443C2
:100D100015F8013F203B02FA03F00842F7D128788A
:100D20002E2817D115F8010F44F004042A280ED0FC
:100D30006FF02F022878A0F1300109290AD808EBBA
:100D4000880102EB410100EB01086D1CF2E757F846
:100D5000048B6D1C287869283ED006DC0028CDD095
:100D600063280BD0642804D136E0732810D075288E
:100D70004BD052460D999047761C85E017F8040B2E
:100D80008DF8000000208DF80100E946012003E005
:100D900057F8049B4FF0FF3061074FF0000401D477
:100DA0000AE0641C44450DDA8442FADB19F80410A9
:100DB0000029F6D106E0641C8442FCDB19F804101B
:100DC0000029F8D1264404E019F8010B52460D9988
:100DD0009047641EF8D257E001CF4FF00A0B00286D
:100DE00002DA40422D2102E0210504D52B218DF8A5
:100DF0002410012103E0E10705D02021F7E70DF1E0
:100E0000200908910CE00021F9E701CF4FF00A0B0F
:100E1000F9E75946FFF748FA01F1300209F8012DC8
:100E20000028F6D1ADEB090000F1200B600701D4DA
:100E30004FF00108D84502DDA8EB0B0000E00020D0
:100E40008046002406E009A85246005D0D999047AF
:100E5000641C761C08988442F5DB04E0302052467E
:100E60000D999047761CB8F10001A8F10108F5DC56
:100E700005E019F8010B52460D999047761CBBF11D
:100E80000001ABF1010BF4DC6D1C34E70928010013
:100E900001B54FF47A72009901FB02F000F002F8FC
:100EA00008BD000001B50849009808604FF0E02037
:100EB000006940F001004FF0E021086100BF0248E6
:100EC00000680028FBD108BD1400002070B504465E
:100ED0000D4600BF40210948FFF7B1FD0028F9D0B9
:100EE000E1B20648FFF779FE00BF40210348FFF753
:100EF000A6FD0028F9D0204670BD00000038014052
:100F000008B501211820FFF7AFFB4FF40050ADF8F2
:100F1000000010208DF8030001208DF802006946C2
:100F20000848FFF79FFA4FF48040ADF8000010200A
:100F30008DF8030001208DF8020069460248FFF792
:100F400091FA08BD00100140000C01404FF000096B
:100F50000024A2464FF4C060FFF77AFBFFF7A8FC1D
:100F6000FFF7CEFFFFF716FB4FF4E130FFF73CFE33
:100F700000BF4FF47A70FFF78BFF4FF0000908E0D5
:100F80000120FFF7EBFB04440A20FFF781FF09F182
:100F90000109B9F10A0FF3DB0A20B4FBF0F4204693
:100FA000FFF751F98346FFF76CF90746084A094BEA
:100FB000FFF7DAF80546FFF74BF98246524621461D
:100FC00005A0FFF769FE4FF47A70FFF761FFD0E7E5
:100FD000F2D24D62105F864076616C7565203D20CF
:100FE00025640920776569676874203D2025640DB4
:100FF0000A00000014100008000000201C0000007F
:10100000B80C0008301000081C0000200404000088
:10101000C80C0008000000000102030401020304E0
:10102000060708090204060800000000000000008E
:0400000508000131BD
:00000001FF
