:020000040800F2
:1000000048060020450100087F0300087703000828
:100010007B030008530200088B0B0008000000005F
:100020000000000000000000000000001D050008A6
:100030005702000800000000050400080906000837
:100040005F0100085F0100085F0100085F01000810
:100050005F0100085F0100085F0100085F01000800
:100060005F0100085F0100085F0100085F010008F0
:100070005F0100085F0100085F0100085F010008E0
:100080005F0100085F0100085F0100085F010008D0
:100090005F0100085F0100085F0100085F010008C0
:1000A0005F0100085F0100085F0100085F010008B0
:1000B0005F0100085F010008250700085F010008D4
:1000C0005F0100085F0100085F0100085F01000890
:1000D0005F010008B90800085F010008ED0800088A
:1000E0005F0100085F0100085F0100085F01000870
:1000F0005F0100085F0100085F0100085F01000860
:100100005F0100085F0100085F0100085F0100084F
:100110005F0100085F0100085F0100085F0100083F
:100120005F0100085F0100085F0100085F0100082F
:10013000DFF80CD000F05CF80048004725130008F9
:10014000480600200648804706480047FEE7FEE7CD
:10015000FEE7FEE7FEE7FEE7FEE7FEE7FEE7FEE777
:100160007D06000831010008D2B201E000F8012B41
:10017000491EFBD270470022F6E710B513460A4627
:1001800004461946FFF7F0FF204610BD2DE9F05F49
:100190000546002092469B468846064681464024F6
:1001A0001BE0284641464746224600F042F85346A7
:1001B0005A46C01A914110D311461846224600F003
:1001C00029F82D1A67EB01084F462246012000212D
:1001D00000F020F817EB00094E41201EA4F10104A5
:1001E000DFDC484631462A464346BDE8F09F000022
:1001F000064C074D06E0E06840F0010394E8070074
:1002000098471034AC42F6D3FFF796FFB0180008B9
:10021000D0180008202A04DB203A00FA02F100205E
:1002200070479140C2F1200320FA03F31943904034
:100230007047202A04DB203A21FA02F0002170479F
:1002400021FA02F3D040C2F120029140084319463E
:10025000704700BFFEE770472DE9F04102460025D8
:100260000026002000230024002791F803C00CF092
:100270000F0591F803C00CF0100CBCF1000F03D077
:1002800091F802C04CEA050591F800C0BCF1000FDE
:1002900031D0146800202BE04FF0010C0CFA00F371
:1002A000B1F800C00CEA03069E4220D183004FF053
:1002B0000F0C0CFA03F7BC4305FA03FC4CEA0404E8
:1002C00091F803C0BCF1280F06D14FF0010C0CFAD5
:1002D00000FCC2F814C00AE091F803C0BCF1480F5A
:1002E00005D14FF0010C0CFA00FCC2F810C0401C04
:1002F0000828D1D31460B1F800C0BCF1FF0F34DD81
:10030000546800202EE000F1080C4FF0010808FAB4
:100310000CF3B1F800C00CEA03069E4221D1830021
:100320004FF00F0C0CFA03F7BC4305FA03FC4CEA40
:10033000040491F803C0BCF1280F05D100F1080CAA
:1003400008FA0CF8C2F8148091F803C0BCF1480F09
:1003500007D100F1080C4FF0010808FA0CF8C2F8B8
:100360001080401C0828CED35460BDE8F081416164
:1003700070470161704700BFFEE700BFFEE77047AE
:1003800070B5002100230F22C47804B3154C2468F3
:1003900004F4E064C4F5E064210AC1F10403CA4036
:1003A000447804FA03F184781440214309010E4C87
:1003B0000678A155047804F01F050124AC400578A7
:1003C0006D11AD0005F1E025C5F8004109E00478A4
:1003D00004F01F050124AC40044D0678761145F861
:1003E000264070BD0CED00E000E400E080E100E09C
:1003F00002490143024A1160704700000000FA05FB
:100400000CED00E07047000029B1064AD2690243B2
:10041000044BDA6104E0034AD2698243014BDA619A
:10042000704700000010024029B1064A9269024359
:10043000044B9A6104E0034A92698243014B9A613A
:10044000704700000010024030B500210022002457
:1004500000232D4D6D6805F00C0121B1042905D054
:10046000082923D105E0294D056022E0274D0560CC
:100470001FE0254D6D6805F47012234D6D6805F47D
:100480008034022505EB92421CB9214D554305608D
:100490000BE01D4D6D6805F400351DB11C4D554335
:1004A000056002E0194D5543056002E0174D0560F7
:1004B00000BF00BF144D6D6805F0F0010909154D2E
:1004C0006B5C0568DD4045600F4D6D6805F4E061CB
:1004D000090A104D6B5C4568DD4085600A4D6D680A
:1004E00005F46051C90A0B4D6B5C4568DD40C56081
:1004F000054D6D6805F44041890B074D6B5CC5687F
:10050000B5FBF3F5056130BD0010024000127A0022
:1005100000093D000000002010000020704710B5C9
:1005200000F002F810BD00000CB500200190009012
:100530003348006840F480303149086000BF3048DB
:10054000006800F4003000900198401C0190009871
:1005500018B90198B0F5A06FF1D12948006800F4EE
:10056000003010B10120009001E0002000900098C0
:10057000012843D12348006840F010002149086059
:100580000846006820F0030008600846006840F054
:10059000020008601A4840681949486008464068E7
:1005A00048600846406840F48060486008464068FB
:1005B00020F47C1048600846406840F4E810486029
:1005C0000846006840F08070086000BF0C48006872
:1005D00000F000700028F9D00948406820F00300BE
:1005E000074948600846406840F00200486000BF84
:1005F0000348406800F00C000828F9D10CBD000049
:10060000001002400020024000B500F049F900BD92
:1006100030B54821B1F1807F01D301201DE021F0E8
:100620007F40401E4FF0E022506150170F220028FB
:1006300007DA13071D0E0F4B00F00F04241F1D5582
:1006400003E013071C0E0C4B1C5400BF00204FF09E
:10065000E022906107201061002008B100BFFEE792
:100660004FF0E020006920F001004FF0E021086128
:1006700030BD000018ED00E000E400E010B51348C4
:10068000006840F0010011490860084640681049C0
:1006900008400E494860084600680E4908400B496A
:1006A00008600846006820F480200860084640681A
:1006B00020F4FE0048604FF41F008860FFF72FFF12
:1006C0004FF000600449086010BD000000100240B7
:1006D0000000FFF8FFFFF6FE08ED00E010B5002275
:1006E0004121044800F07FF80021024800F05EF844
:1006F00010BD00000008004010B50121084800F0BE
:100700004FF80021064800F077F801224121044803
:1007100000F069F80121024800F048F810BD00001F
:100720000008004010B50121064800F04BF840B128
:100730000121044800F037F8FFF7D0FF02200249FA
:10074000087010BD00080040140000207FB5054669
:100750000C4601210420FFF757FEADF80850ADF814
:1007600004400020ADF80A00ADF8060001A90B48CE
:1007700000F044F81E208DF8000002208DF80100E2
:1007800003208DF8020001208DF803006846FFF772
:10079000F7FD0121014800F003F87FBD000800408B
:1007A000CA4302827047CA430282704721B102885D
:1007B00042F00102028004E002884FF6FE731A4004
:1007C0000280704730B50246002000230024158ABD
:1007D00005EA0103958905EA010413B10CB1012072
:1007E00000E0002030BD1AB183890B43838102E011
:1007F00083898B43838170478184704700220288FC
:100800001D4B98420ED01D4B98420BD0B0F1804F3B
:1008100008D01B4B984205D01A4B984202D01A4B75
:10082000984204D14FF68F731A404B881A43174BE6
:10083000984207D0164B984204D04FF6FF431A4017
:10084000CB881A4302808B8883850B8803850A4BEB
:1008500098420BD0094B984208D00E4B984205D0D5
:100860000D4B984202D00D4B984201D10B7A038672
:100870000123838270470000002C014000340140B6
:100880000004004000080040000C00400010004040
:100890000014004000400140004401400048014075
:1008A0000448006820B103480068401E0149086000
:1008B000704700001C00002010B540F22551094887
:1008C00000F09FF860B140F22551064800F071F841
:1008D000044800F051F9C4B2214603A000F028FA00
:1008E00010BD0000003801402563000010B540F243
:1008F0002551214800F085F8A8B11F4800F03CF9C7
:100900001E491F4A1278885408461D4A1278815C95
:100910001CA000F00DFA1A480078401C1849087015
:10092000FFF7EAFE26E040F22661134800F069F87E
:1009300000B34021104800F033F8144800781449FF
:10094000097888420CDA11480078401C0F49087079
:1009500010480A461278815C074800F012F909E055
:100960004FF400710C48FFF702FD002004490870A5
:100970000A49087010BD0000004800402400002013
:1009800015000020253032782000000017000020DC
:100990001600002024020020001001401800002052
:1009A00001F40072B2F5007F00D100BFCA4302809B
:1009B000704710B50022002340F66A14A14200D10E
:1009C00000BF0A1201249440A3B2DC43048010BD8E
:1009D00021B1828942F40052828104E082894DF67D
:1009E000FF731A408281704702460020B1F5007FF4
:1009F00000D100BF13880B400BB1012000E00020A4
:100A0000704770B50246002400230025002040F600
:100A10006A16B14200D100BFC1F3421501F01F03B5
:100A2000012606FA03F3012D02D19689334006E030
:100A3000022D02D1168A334001E0968A33400C120F
:100A4000012606FA04F41688344013B10CB10120D3
:100A500000E0002070BDF0B503460024002600250C
:100A6000002040F66A17B94200D100BF1846C1F312
:100A7000421401F01F06012707FA06F5012C01D1E7
:100A80000C3004E0022C01D1103000E014301AB117
:100A900007682F43076002E00768AF430760F0BDB7
:100AA0002DE9F04786B005460E460024A24600BF59
:100AB000A1460027B08900B100BF2F462C8A4CF612
:100AC000FF700440F08804432C82AC894EF6F3108A
:100AD0000440B08831890843718908430443AC81DC
:100AE000AC8A4FF6FF400440B0890443AC8201A8B1
:100AF000FFF7AAFC1F48874202D1DDF810A001E0F1
:100B0000DDF80CA0A88900F4004040B10AEBCA004F
:100B100000EB0A1031684900B0FBF1F807E00AEB7E
:100B2000CA0000EB0A1031688900B0FBF1F86420BC
:100B3000B8FBF0F004012009642101FB1089A889A9
:100B400000F4004040B1322000EBC900B0FBF1F0EE
:100B500000F00700044308E0322000EB0910642194
:100B6000B0FBF1F000F00F0004432C8106B0BDE8AB
:100B7000F08700000038014001468888C0F3080073
:100B80007047C1F308028280704700BFFEE7000093
:100B900010B586B00446012144F20400FFF744FC7E
:100BA0004FF40070ADF8140018208DF817000320E2
:100BB0008DF8160005A92048FFF74EFB4FF4806022
:100BC000ADF8140004208DF8170003208DF81600EE
:100BD00005A91948FFF740FB01940020ADF8080073
:100BE000ADF80A00ADF80C00ADF810000C20ADF81F
:100BF0000E0001A91148FFF753FF25208DF80000D2
:100C000000208DF8010001208DF802008DF803000E
:100C10006846FFF7B5FB012240F225510748FFF770
:100C20001AFF01210548FFF7D3FE40210348FFF7D3
:100C3000DBFE06B010BD0000000801400038014096
:100C400010B586B0044601218804FFF7DDFB0121C1
:100C50000920FFF7E9FB4FF48060ADF8140018207D
:100C60008DF8170003208DF8160005A92D48FFF711
:100C7000F3FA4FF40060ADF8140004208DF817006B
:100C800003208DF8160005A92648FFF7E5FA019420
:100C90000020ADF80800ADF80A00ADF80C00ADF882
:100CA00010000C20ADF80E0001A91F48FFF7F8FE58
:100CB00027208DF8000001208DF801008DF802003A
:100CC0008DF803006846FFF75BFB012240F22551D7
:100CD0001548FFF7C0FE40211348FFF761FE0122CF
:100CE00040F226611048FFF7B6FE01210E48FFF7DB
:100CF0006FFE01211020FFF797FB4FF40070ADF855
:100D0000140010208DF8170003208DF8160005A997
:100D10000648FFF7A1FA4FF400710448FFF727FBDC
:100D200006B010BD000C014000480040001001401A
:100D30000FB4054B10B503A9044A029800F018F847
:100D400010BC5DF814FB0000C51200082000002054
:100D500002E008C8121F08C1002AFAD17047704784
:100D6000002001E001C1121F002AFBD170470000E2
:100D70002DE9FF4F8DB00F460546002606E02528D9
:100D80000BD0DDE90F1290476D1C761C28780028E7
:100D9000F5D111B03046BDE8F08F0024A246A1463F
:100DA0000122EC4900E0044315F8013F203B02FA20
:100DB00003F00842F7D128782A2810D06FF02F02CC
:100DC0002878A0F13001092914D80AEB8A0102EB36
:100DD000410144F0020400EB010A6D1CF0E701CF71
:100DE0005FEA000A03D544F40054CAF1000A44F053
:100DF00002046D1C28782E2817D115F8010F44F035
:100E000004042A280ED06FF02F022878A0F13001B8
:100E100009290AD809EB890102EB410100EB01091C
:100E20006D1CF2E757F8049B6D1C28786C280FD0D6
:100E300006DC4C2817D068280DD06A2814D104E0AD
:100E4000742810D07A280FD10DE044F400140AE081
:100E500044F4801401E044F440146978814202D1E2
:100E600004F580146D1C6D1C2A786E2A1FD00CDCD2
:100E7000632A31D004DC002A8BD0582A11D1A3E098
:100E8000642A68D0692A0CD165E0732A2ED004DC6C
:100E90006F2A73D0702A04D19BE0752A6FD0782A0C
:100EA0006ED01046DDE90F129047761C50E1C4F376
:100EB0000250022806D0032809D0042801CF09D007
:100EC000066045E101CFF117C0E9006140E101CFC3
:100ED00006803DE106703BE117F8040B8DF8000039
:100EE00000208DF80100EB46012003E057F804BB19
:100EF0004FF0FF3061074FF0000102D40DE008F120
:100F00000101884649450FDA8045F8DB1BF80810D7
:100F10000029F4D108E008F1010188468142FADB9A
:100F20001BF808100029F6D1DDE90F23AAEB080011
:100F30008146214600F036F9304400EB080604E013
:100F4000DDE90F121BF8010B9047B8F10108F7D249
:100F500021464846F7E00A21C4F302534FF0000B44
:100F60000891022B04D001CFC117032B09D00AE04E
:100F7000FF1D27F00707F7E8020108E032E01FE055
:100F800020E000B2C117042B01D140B2C117031EEB
:100F900071F1000307DA4FF0000CD0EB0C006CEBA2
:100FA00001012D2302E0230504D52B238DF82430E5
:100FB000012303E0E30701D02023F7E7984658E038
:100FC0000A2110E010210EE010204FF0000B0890D5
:100FD0000CE010214FF0000B44F004044FF008091E
:100FE000089103E008214FF0000B0891C4F302536D
:100FF000022B04D001CF0021032B06D006E0FF1DF9
:1010000027F00707F7E8020103E080B2042B00D1C4
:10101000C0B24FF0000823072BD5702A07D0DDF8A7
:1010200020C08CF0100C5CEA0B0C05D00EE04023C5
:101030008DF82430012308E050EA010306D0302364
:101040008DF824308DF8252002239846DDF820C045
:101050008CF0080C5CEA0B0C0BD150EA010301D1B7
:10106000630706D530238DF824304FF00108A9F12D
:101070000109582A04D038A20B9208AA0A920BE060
:101080003AA2F9E75B46089AFFF780F80B9B9B5C56
:101090000A9A521E0A92137050EA0102F2D10A987B
:1010A000ADEB000000F1200B600702D524F4803482
:1010B00001E04FF00109D94502DDA9EB0B0000E08A
:1010C000002000EB0B0141440890AAEB010AE00369
:1010D00006D4DDE90F232146504600F063F80644AC
:1010E0004FF0000908E009A911F80900DDE90F1225
:1010F000904709F10109761CC145F4DBE0030CD5EA
:10110000DDE90F232146504600F04CF8064404E088
:10111000DDE90F1230209047761C0899481E089090
:101120000029F5DC08E00A980A990078491C0A9120
:10113000DDE90F129047761CBBF10001ABF1010B0A
:10114000F1DC21465046DDE90F2300F019F8064492
:101150006D1C1BE609280100303132333435363737
:1011600038396162636465660000000030313233F3
:101170003435363738394142434445460000000093
:101180002DE9F041044600251E461746880404D484
:1011900005E039462020B0476D1C641EF9D528466D
:1011A000BDE8F0812DE9F041044600251E46904639
:1011B000C80301D5302700E02027880404D505E0C6
:1011C00041463846B0476D1C641EF9D52846BDE837
:1011D000F081000010B54FF400710A48FFF7C9F81C
:1011E00000200949087009480078012804DD0748F3
:1011F0000078401E05490870054801780548FFF74A
:10120000C0FC10BD00100140170000201600002097
:101210002402002000480040F0B506460D46144662
:101220002146284600F014F8074638122855291997
:101230004F70601CC4B2601CC4B203E028783070E8
:10124000761C6D1C2000A4F10101CCB2F6D1F0BDDA
:1012500070B502460C46FF25FF2309E012F8010B8A
:1012600080EA05010648405C80EA03050548435CC6
:101270002000A4F10106B4B2F0D143EA052070BD0C
:10128000B0160008B017000801B54FF47A72009943
:1012900001FB02F000F002F808BD000001B50849AA
:1012A000009808604FF0E020006940F001004FF026
:1012B000E021086100BF024800680028FBD108BD9A
:1012C0001C00002070B504460D4600BF40210948AF
:1012D000FFF78AFB0028F9D0E1B20648FFF751FC7E
:1012E00000BF40210348FFF77FFB0028F9D02046CC
:1012F00070BD00000038014008B501211020FFF743
:1013000093F84FF40050ADF8000010208DF8030062
:1013100001208DF8020069460148FEF79DFF08BDD7
:10132000001001404FF4C060FFF762F8FFF770F95A
:10133000FFF7E2FF4FF4E130FFF72AFC4FF41650BD
:10134000FFF77EFC41F61F413C20FFF7FFF900BF8D
:101350004FF400510948FFF70AF800F001F94FF483
:101360007A70FFF791FF4FF400510448FFF701F83E
:101370004FF47A70FFF788FFEAE7000000100140A1
:101380002DE9F84F07460D469046994605EB0900B2
:1013900010F802BC05EB090010F8010C00EB0B2063
:1013A0001FFA80FBA9F1020081B22846FFF750FF27
:1013B00000900098834577D147A0FFF7B9FC687883
:1013C000032842D004DC012807D0022872D120E093
:1013D000042853D081286DD168E0002415E04FF037
:1013E000010A00260DE0E87800EA0A0007EB480150
:1013F00001EB041121F81600E8784010E870701C29
:10140000C6B2082EEFDB601CC4B2A878A042E6DCAE
:1014100053E0002415E04FF0010A00260DE0E878C3
:1014200000EA0A0007EB480101EB041121F816005D
:10143000E8784010E870701CC6B2082EEFDB601C24
:10144000C4B2A878A042E6DC37E027A0FFF770FC22
:1014500000240FE029190A792919C97802EB012122
:10146000204604EBD072521007EB480323F8121009
:10147000A01CC4B2A878A042ECDC1EE000240FE05F
:1014800029190A792919C97802EB0121204604EBB0
:10149000D072521007EB480323F81210A01CC4B2FC
:1014A000A878A042ECDC08E00CE003E04FF0FF304D
:1014B000BDE8F88F4FF0FF30FAE700BF00200E497B
:1014C000087007E00DA0FFF733FC00200A49087000
:1014D000401EEDE70020EBE70D0AD0A3D1E9D5FDD2
:1014E000C8B70D0A000000000D0ABDE2CEF6303389
:1014F000C3FCC1EE0D0A0000150000200D0AD0A3A8
:10150000D1E9CAA7B0DC0D0A000000002DE9F041C6
:1015100088B007460E4614461D468DF8007003201D
:101520008DF8010020128DF80200E0B28DF8030062
:1015300028128DF80400E8B28DF805004FF0060877
:10154000424669463046FFF767FE082003490870A7
:10155000FFF740FE082008B0BDE8F081160000202B
:1015600030B58BB00224282101A8FEF704FE012526
:101570007DE0681C012804D0022803D0032872D122
:1015800039E071E0E0B2012300224249FFF7BEFFDB
:101590004FF47A70FFF778FE3F480078022819D19F
:1015A0003E480078A04215D100203B4908700C232A
:1015B00000223A490DF10A00FFF7E2FEB0F1FF3FC9
:1015C00018D14FF400713548FEF7D5FD002034499D
:1015D00008700FE030480078022803D12F480078C7
:1015E000A04207D000202E4908704FF400712B480C
:1015F000FEF7C1FD38E0E0B2012300222549FFF7E4
:1016000085FF4FF47A70FFF73FFE234800780228E9
:1016100018D122480078A04214D100201E49087039
:101620000C2300221D4903A8FFF7AAFEB0F1FF3FDB
:1016300018D100201A4908704FF400711748FEF7BE
:101640009AFD0FE014480078022803D1134800786F
:10165000A04207D00020124908704FF400710F48D3
:10166000FEF789FD00BF00BF00BF641C6D1C032D89
:10167000FFF67FAF0BA0FFF75BFB002506E001A89C
:1016800030F8151008A0FFF753FB6D1C0A2DF6DB90
:101690000BB030BD240200201400002024000020E4
:1016A000150000200D0A0000202564200000000025
:1016B00000C1814001C0804101C0804100C1814022
:1016C00001C0804100C1814000C1814001C0804112
:1016D00001C0804100C1814000C1814001C0804102
:1016E00000C1814001C0804101C0804100C18140F2
:1016F00001C0804100C1814000C1814001C08041E2
:1017000000C1814001C0804101C0804100C18140D1
:1017100000C1814001C0804101C0804100C18140C1
:1017200001C0804100C1814000C1814001C08041B1
:1017300001C0804100C1814000C1814001C08041A1
:1017400000C1814001C0804101C0804100C1814091
:1017500000C1814001C0804101C0804100C1814081
:1017600001C0804100C1814000C1814001C0804171
:1017700000C1814001C0804101C0804100C1814061
:1017800001C0804100C1814000C1814001C0804151
:1017900001C0804100C1814000C1814001C0804141
:1017A00000C1814001C0804101C0804100C1814031
:1017B00000C0C101C30302C2C60607C705C5C404F1
:1017C000CC0C0DCD0FCFCE0E0ACACB0BC90908C861
:1017D000D81819D91BDBDA1A1EDEDF1FDD1D1CDC51
:1017E00014D4D515D71716D6D21213D311D1D010C1
:1017F000F03031F133F3F23236F6F737F53534F4B1
:101800003CFCFD3DFF3F3EFEFA3A3BFB39F9F83820
:1018100028E8E929EB2B2AEAEE2E2FEF2DEDEC2C10
:10182000E42425E527E7E62622E2E323E12120E080
:10183000A06061A163A3A26266A6A767A56564A470
:101840006CACAD6DAF6F6EAEAA6A6BAB69A9A868E0
:1018500078B8B979BB7B7ABABE7E7FBF7DBDBC7CD0
:10186000B47475B577B7B67672B2B373B17170B040
:101870005090915193535292965657975595945430
:101880009C5C5D9D5F9F9E5E5A9A9B5B99595898A0
:10189000884849894B8B8A4A4E8E8F4F8D4D4C8C90
:1018A0004484854587474686824243834181804000
:1018B000D01800080000002024000000500D00088F
:1018C000F41800082400002024060000600D000821
:1018D00000000000010203040102030406070809D6
:1018E00002040608000000000000000000000000E4
:0418F00000000000F4
:0400000508000131BD
:00000001FF
