:020000040800F2
:1000000000070020450100080F0D000881090008C5
:100010000B0D0008CD0700086F1500080000000058
:100020000000000000000000000000001D1000089B
:100030001508000800000000E50D00081112000876
:100040005F0100085F0100085F0100085F01000810
:100050005F0100085F0100085F0100085F01000800
:100060005F0100085F0100085F0100085F010008F0
:100070005F0100085F0100085F0100085F010008E0
:100080005F0100085F0100085F0100085F010008D0
:100090005F0100085F0100085F0100085F010008C0
:1000A0005F0100085F0100085F0100085F010008B0
:1000B0005F0100085F0100085F0100085F010008A0
:1000C0005F0100085F0100085F0100085F01000890
:1000D0005F010008FD120008251300085F010008F9
:1000E0005F0100085F0100085F0100085F01000870
:1000F0005F0100085F0100085F0100085F01000860
:100100005F0100085F0100085F0100085F0100084F
:100110005F0100085F0100085F0100085F0100083F
:100120005F0100085F0100085F0100085F0100082F
:10013000DFF80CD000F038FB00480047AD23000882
:10014000000700200648804706480047FEE7FEE714
:10015000FEE7FEE7FEE7FEE7FEE7FEE7FEE7FEE777
:10016000851200083101000840EA01039B0703D013
:1001700009E008C9121F08C0042AFAD203E011F8E6
:10018000013B00F8013B521EF9D27047D2B201E0A8
:1001900000F8012B491EFBD270470022F6E710B58C
:1001A00013460A4604461946FFF7F0FF204610BDE5
:1001B000CAB2401E10F8011F8A4202D00029F9D1AC
:1001C00000207047421C10F8011B0029FBD1801A47
:1001D0007047034611F8012B00F8012B002AF9D1D2
:1001E000184670472DE9FE4F804681EA0300C00F94
:1001F0000C46009021F0004123F00045B8EB0200CE
:10020000A94105D24046214690461C460B4602466F
:1002100023F00040104347D0270DC7F30A00C3F373
:100220000A510290401A019040286BDAC3F3130080
:1002300040F4801B0098924620B10023D2EB030AC1
:1002400063EB0B0B01985946C0F14002504600F099
:1002500096F906460D4650465946019A00F0AEF909
:1002600010EB08006141002487EA115284EAE77329
:100270001A4340D0009A62B3019A012A4FEA07520A
:1002800015DC001B61EB02014FF0004202EA07524D
:10029000CDE90042001C41F5801132462B4600F0AA
:1002A000AEF903B0BDE8F08F40462146F9E7001BE8
:1002B00061EB0201001C41F5801300185B4120181E
:1002C000A2F5001747EB030140EAD570B6196D415E
:1002D00011E06D084FEA360645EAC0754FEA07524D
:1002E000001B61EB0201001C41F5801149084FEA37
:1002F00030000019514132462B4603B0BDE8F04FA3
:1003000000F06EB90098012240000023D0EB0202F9
:1003100063EBE073009821464FEAE074B8EB00000D
:1003200061EB0401E9E783F000435BE781F0004102
:1003300058E72DE9FE4F81EA030404F0004421F060
:10034000004100944FF0000B23F0004350EA0104F9
:100350005ED052EA03045BD0C3F30A54C1F30A55DA
:100360002C44A4F2F3340194A0FB0254C1F3130112
:1003700041F48011C3F3130343F4801301FB0244DF
:1003800000FB034E840A970A44EA815447EA8357E4
:10039000A4FB076802958D0A05FB07854FEA932C9D
:1003A00004FB0C542705029D4FEA065847EA16370E
:1003B000B5EB08056EEB070C870E920E47EA811726
:1003C00042EA8312A7FB0201B6EB0B0164EB0004C7
:1003D0002B0D43EA0C335E1844EB1C50DA465146B1
:1003E000E7FB0201C5F313044FEA0B3343EA14534E
:1003F0004FEA0432019C43EA0603A4F10C04029480
:10040000009CCDE900B400F0FAF803B0BDE8F08F2D
:1004100000200146F9E70EB5C10F80EAE0700844FC
:10042000CA07002140F233438DE80E000A460B460E
:1004300000F0E5F803B000BD0EB540F23341029183
:100440000021CDE900110A460B4600F0D8F803B0B0
:1004500000BD70B5C1F30A5201F000450024C1F39C
:10046000130140F2FF3341F480119A4201DA002077
:1004700070BD40F233439A42A2F2334203DC52424F
:1004800000F08CF800E090402C43F1D0404270BD69
:1004900030B5041E71F1000404DB4FF0004440420B
:1004A00064EB0101141E73F1000405DB1C464FF0E0
:1004B0000043524263EB04038B4208BF824230BDCB
:1004C00030B5041E71F1000404DB4FF000444042DB
:1004D00064EB0101141E73F1000405DB1C464FF0B0
:1004E0000043524263EB0403994208BF904230BD7F
:1004F00030B50B46014600202022012409E021FAF4
:1005000002F59D4205D303FA02F5491B04FA02F5F0
:100510002844151EA2F10102F1DC30BD2DE9F05F87
:100520000546002092469B46884606468146402462
:100530001BE0284641464746224600F02FF8534626
:100540005A46C01A914110D311461846224600F06F
:1005500016F82D1A67EB01084F46224601200021AC
:1005600000F00DF817EB00094E41201EA4F1010424
:10057000DFDC484631462A464346BDE8F09F202A44
:1005800004DB203A00FA02F1002070479140C2F1EA
:10059000200320FA03F3194390407047202A04DB1C
:1005A000203A21FA02F00021704721FA02F3D040EC
:1005B000C2F120029140084319467047202A06DB09
:1005C000CB17203A41FA02F043EAE07306E041FA21
:1005D00002F3D040C2F1200291400843194670470F
:1005E00010B5141E73F1000408DA401C41F100013B
:1005F00092185B411A4301D120F0010010BD2DE992
:10060000F04D92469B4611B1B1FA81F202E0B0FA88
:1006100080F220329046FFF7B2FF04460F4640EAD0
:100620000A0041EA0B0153465A46084313D01146CB
:1006300053EA010019D0C8F140025046FFF7AEFF5F
:1006400005460E46504659464246FFF798FF084376
:1006500005D0012004E020463946BDE8F08D002099
:10066000054346EAE0762C4337430A986305E40ADB
:10067000A0EB08000022FD0A44EA47540A3002D5E4
:1006800000200146E9E7010510196941DDE9084547
:1006900000196941BDE8F04DA2E72DE9F04D81EA6E
:1006A000030404F0004B21F0004514464FF0000A0B
:1006B00023F0004150EA050220D054EA01021DD087
:1006C000C5F30A570246C5F31303C1F31300C1F380
:1006D0000A5640F4801543F48013A7EB0608101B5C
:1006E000D64608F2FD3873EB050002D308F1010885
:1006F00001E092185B41B8F1000F03DA00200146D7
:10070000BDE8F08D00204FF48011064684460EE0CF
:10071000171B73EB050705D3121B63EB0503064399
:100720004CEA010C49084FEA300092185B4150EA4C
:100730000107EDD152EA030012D082EA040083EAF5
:100740000501084305D0101BAB4106D2012200234E
:1007500006E000224FF0004302E06FF00102531068
:100760001AEB06004CEB085110EB0A0041EB0B01B1
:10077000BDE8F04DFFF734BFC1F30A52C1F31301D6
:1007800040F2FF3341F480119A4202DA0020014620
:10079000704740F233439A42A2F2334202DC5242A3
:1007A000FFF7FCBEFFF7EBBE064C074D06E0E06826
:1007B00040F0010394E8070098471034AC42F6D3A8
:1007C000FFF7BAFC1C3200083C32000800BFFEE70D
:1007D00008B54FF48060ADF8000048208DF80300A4
:1007E0006946024800F034F808BD0000000C0140E2
:1007F00008B54FF48060ADF8000010208DF80300BC
:1008000003208DF802006946014800F021F808BD78
:10081000000C01407047000008B50121082000F0DD
:10082000F3FA4FF48060ADF8000010208DF803005B
:1008300003208DF802006946044800F009F84FF4DF
:100840008061024800F09AF808BD0000000C0140E9
:100850002DE9F04102460025002600200023002457
:10086000002791F803C00CF00F0591F803C00CF0BD
:10087000100CBCF1000F03D091F802C04CEA050542
:1008800091F800C0BCF1000F31D0146800202BE0BB
:100890004FF0010C0CFA00F3B1F800C00CEA0306AB
:1008A0009E4220D183004FF00F0C0CFA03F7BC439B
:1008B00005FA03FC4CEA040491F803C0BCF1280FCC
:1008C00006D14FF0010C0CFA00FCC2F814C00AE08B
:1008D00091F803C0BCF1480F05D14FF0010C0CFAA0
:1008E00000FCC2F810C0401C0828D1D31460B1F835
:1008F00000C0BCF1FF0F34DD546800202EE000F191
:10090000080C4FF0010808FA0CF3B1F800C00CEA2B
:1009100003069E4221D183004FF00F0C0CFA03F71F
:10092000BC4305FA03FC4CEA040491F803C0BCF193
:10093000280F05D100F1080C08FA0CF8C2F8148051
:1009400091F803C0BCF1480F07D100F1080C4FF03B
:10095000010808FA0CF8C2F81080401C0828CED311
:100960005460BDE8F0810246002093680B400BB153
:10097000012000E00020704741617047016170472D
:1009800000BFFEE730B50246002300BF0846CD1782
:1009900001EB5565ED11A1EBC515ECB2CD1701EBDF
:1009A0005565E911002901DD44F0800418465B1CFF
:1009B00014540029EADC184630BD0000401C802891
:1009C00001DA401C0AE0B0F5804F01DA801C05E036
:1009D0000349884201DAC01C00E0001D7047000096
:1009E000FFFF1F002DE9FE4305460E461446029503
:1009F00000200190009000274FF0FF38204600F0C3
:100A0000A5F807468146FFF7D9FFB04202DD6FF037
:100A100001088FE000208DF80400019820F0F0001C
:100A2000103001909DF8041002A802F08EFB3946A8
:100A30000298FFF7A7FF029908440290207A042841
:100A400008D13EA102A802F06CFB042102A802F02A
:100A50007CFB07E03BA102A802F063FB032102A894
:100A600002F073FB00208DF80000A17E009861F376
:100A700041000090E07E08B1012100E000210098D3
:100A800061F3820000900098C0F3800058B194F8A0
:100A90003D10009861F3C400009094F83C10009859
:100AA00061F345100090206C08B9A06C20B100984B
:100AB00020F0800080300090E06C08B9606D20B1BB
:100AC000009820F04000403000909DF8001002A8EF
:100AD00002F03BFB218B02A802F03DFB02A8D4E907
:100AE0000423E16802F04FFBE07E58B102A8D4E98C
:100AF0000A23616A02F047FB02A8D4E90D23216BA7
:100B000002F041FB0098C0F3C01028B102A8D4E95C
:100B10001123216C02F037FB0098C0F3801028B13C
:100B200002A8D4E91423E16C02F02DFB0298A0EB9B
:100B3000050800BF4046BDE8FE8300004D515454F7
:100B4000000000004D5149736470000070B5044608
:100B50000025207A032801D10C2503E0207A0428FF
:100B600000D10A25D4E90412E06800F0C2F8801C24
:100B70000544E07E68B1D4E90A12606A00F0B9F871
:100B8000861CD4E90D12206B00F0B3F83044801CB1
:100B90000544206C08B9A06C30B1D4E91112206C66
:100BA00000F0A7F8801C0544E06C08B9606D30B116
:100BB000D4E91412E06C00F09CF8801C054428462F
:100BC00070BD70B504460D460E222946204600F041
:100BD0006AF870BD2DE9F04F87B005460F46904684
:100BE0001C46DDE915B6DDE9109A06950020059052
:100BF000049003900096204612A90EC900F042F816
:100C000004900290FFF7DAFEB84203DD6FF00100B6
:100C1000039033E0059820F0F000303005900598FF
:100C200068F3C3000590059864F3420005900598A9
:100C300069F3000005909DF8141006A802F085FAEB
:100C400004990698FFF79EFE06990844069006A8A8
:100C500012A90EC902F097FA002C03DD514606A82E
:100C600002F079FA324659460698FFF77DFA06985F
:100C7000304406900698401B039000BF039807B0CD
:100C8000BDE8F08F7FB50546089E002401A807C87F
:100C900000F02FF8801C30440444002D00DDA41C1B
:100CA000204604B070BD2DE9FC4104460D461646B1
:100CB00000200190471E0094022D01DA871E15E0E6
:100CC00000208DF80400019866F3071001909DF84C
:100CD0000410684602F039FA00210098FFF752FE2E
:100CE0000099084400900098071B00BF3846BDE8F3
:100CF000FC8137B50024009820B10098FFF762FA14
:100D0000044600E0019C20463EBD00BFFEE7704760
:100D100008B54FF4E06000F05BF825208DF8000086
:100D200000208DF8010001208DF802008DF80300ED
:100D3000684600F015F84FF4E06000F049F826200E
:100D40008DF8000000208DF8010002208DF80200CF
:100D500001208DF80300684600F002F808BD00008D
:100D600070B5002100230F22C47804B3154C246809
:100D700004F4E064C4F5E064210AC1F10403CA404C
:100D8000447804FA03F184781440214309010E4C9D
:100D90000678A155047804F01F050124AC400578BD
:100DA0006D11AD0005F1E025C5F8004109E00478BA
:100DB00004F01F050124AC40044D0678761145F877
:100DC000264070BD0CED00E000E400E080E100E0B2
:100DD00002490143024A1160704700000000FA0511
:100DE0000CED00E07047000029B1064AD2690243C9
:100DF000044BDA6104E0034AD2698243014BDA61B1
:100E0000704700000010024029B1064A926902436F
:100E1000044B9A6104E0034A92698243014B9A6150
:100E2000704700000010024030B50021002200246D
:100E300000232D4D6D6805F00C0121B1042905D06A
:100E4000082923D105E0294D056022E0274D0560E2
:100E50001FE0254D6D6805F47012234D6D6805F493
:100E60008034022505EB92421CB9214D55430560A3
:100E70000BE01D4D6D6805F400351DB11C4D55434B
:100E8000056002E0194D5543056002E0174D05600D
:100E900000BF00BF144D6D6805F0F0010909154D44
:100EA0006B5C0568DD4045600F4D6D6805F4E061E1
:100EB000090A104D6B5C4568DD4085600A4D6D6820
:100EC00005F46051C90A0B4D6B5C4568DD40C56097
:100ED000054D6D6805F44041890B074D6B5CC56895
:100EE000B5FBF3F5056130BD0010024000127A0039
:100EF00000093D00000000201000002070B5002512
:100F0000002427E000BF4FF480611448FFF72BFD59
:100F10000028F8D0282001F027F94FF480610F480D
:100F2000FFF721FD01280ED100BF4FF480610B486F
:100F3000FFF719FD0128F8D0C4F10701012088400E
:100F4000C0B2054304E0C4F1070101208840854395
:100F5000601CC4B2082CD5DB284670BD000C0140D3
:100F600010B50446FFF744FC4FF480612A48FFF7B0
:100F700003FD142001F0EEF84FF480612648FFF7DE
:100F8000FDFC1E2001F0F0F8FFF722FC4FF4806119
:100F90002148FFF7E8FC00283BD100BF4FF48061F7
:100FA0001D48FFF7E0FC0028F8D000BF4FF4806137
:100FB0001948FFF7D8FC0128F8D01E2001F0D4F81A
:100FC000FFF79CFF2070FFF799FF6070FFF796FF17
:100FD000A070FFF793FFE070FFF790FF20714FF4D0
:100FE00080610D48FFF7C8FCFFF702FC4FF48061F9
:100FF0000948FFF7C3FC207861780844A1780844C9
:10100000E17808442179884201D1012010BD0020F7
:10101000FCE70020FAE70000000C014070470000E8
:101020002DE9F04FD5B00546582235493FA8FFF7C6
:101030009BF8C82600200A900B900C90002431A049
:1010400042901420ADF8140101208DF816012FA054
:101050004F902EA0529004208DF804012CA00A90ED
:1010600001F00CF80990A878FFF7E6F9074600F0C0
:10107000D7FF83465A4628A1099800F09FFF287899
:10108000FFF7DAF9074600F0CBFF83465A4624A162
:10109000099800F093FF099801F036F88146099805
:1010A00000F0F6FF484601F03FF9CA465046FFF708
:1010B00089F808903FAA31460DA8FFF793FC044633
:1010C0000898CDE905A00AA807C802AB07C300200D
:1010D0000090311B0DAA0190101900231A46FFF74A
:1010E00079FD0444311B0DAA1019FFF76AFD044471
:1010F00021460DA801F0EDFF55B0BDE8F08F0000CE
:10110000C4310008736563746F6E670000000000EF
:101110006C616C616C61000074656D7000000000B2
:1011200068756D690000000010B500F001F810BD91
:101130000CB50020019000903348006840F48030E6
:101140003149086000BF3048006800F4003000906A
:101150000198401C0190009818B90198B0F5A06F53
:10116000F1D12948006800F4003010B1012000904E
:1011700001E0002000900098012843D12348006836
:1011800040F01000214908600846006820F0030084
:1011900008600846006840F0020008601A4840688D
:1011A000194948600846406848600846406840F46D
:1011B000806048600846406820F47C10486008461B
:1011C000406840F4E81048600846006840F08070CD
:1011D000086000BF0C48006800F000700028F9D0DB
:1011E0000948406820F00300074948600846406805
:1011F00040F00200486000BF0348406800F00C0067
:101200000828F9D10CBD0000001002400020024067
:1012100000B500F067F800BD30B54821B1F1807F1E
:1012200001D301201DE021F07F40401E4FF0E0225D
:10123000506150170F22002807DA13071D0E0F4BBD
:1012400000F00F04241F1D5503E013071C0E0C4B68
:101250001C5400BF00204FF0E02290610720106175
:10126000002008B100BFFEE74FF0E020006920F049
:1012700001004FF0E021086130BD000018ED00E0F2
:1012800000E400E010B51348006840F00100114987
:10129000086008464068104908400E494860084602
:1012A00000680E4908400B4908600846006820F4B1
:1012B000802008600846406820F4FE0048604FF433
:1012C0001F008860FFF730FF4FF00060044908609E
:1012D00010BD0000001002400000FFF8FFFFF6FE06
:1012E00008ED00E00448006820B103480068401E93
:1012F00001490860704700001400002010B540F25A
:101300002551064800F06EF838B1044800F026F97F
:10131000C4B2214602A000F0B9F910BD0038014066
:101320002563000010B5002440F225510E4800F05E
:1013300059F8B8B140F225510B4800F02BF80A4893
:1013400000F00CF909490A4A1288885408480088B4
:10135000401C0749088000BF8021034800F035F891
:101360000028F9D010BD00000044004034000020E7
:101370001800002010B504462146054800F0F3F897
:1013800000BF8021024800F020F80028F9D010BDED
:101390000044004010B50022002340F66A14A14228
:1013A00000D100BF0A1201249440A3B2DC430480A0
:1013B00010BD21B1828942F40052828104E0828909
:1013C0004DF6FF731A408281704702460020B1F546
:1013D000007F00D100BF13880B400BB1012000E05B
:1013E0000020704770B5024600240023002500202D
:1013F00040F66A16B14200D100BFC1F3421501F0B8
:101400001F03012606FA03F3012D02D1968933400A
:1014100006E0022D02D1168A334001E0968A33405D
:101420000C12012606FA04F41688344013B10CB1EC
:10143000012000E0002070BDF0B503460024002626
:101440000025002040F66A17B94200D100BF1846B7
:10145000C1F3421401F01F06012707FA06F5012C1B
:1014600001D10C3004E0022C01D1103000E0143026
:101470001AB107682F43076002E00768AF430760AF
:10148000F0BD00002DE9F04786B005460E46002469
:10149000A24600BFA1460027B08900B100BF2F4679
:1014A0002C8A4CF6FF700440F08804432C82AC89EF
:1014B0004EF6F3100440B08831890843718908431F
:1014C0000443AC81AC8A4FF6FF400440B08904432A
:1014D000AC8201A8FFF7A8FC1F48874202D1DDF8C3
:1014E00010A001E0DDF80CA0A88900F4004040B194
:1014F0000AEBCA0000EB0A1031684900B0FBF1F8B2
:1015000007E00AEBCA0000EB0A1031688900B0FB63
:10151000F1F86420B8FBF0F004012009642101FB1C
:101520001089A88900F4004040B1322000EBC900C6
:10153000B0FBF1F000F00700044308E0322000EBBC
:1015400009106421B0FBF1F000F00F0004432C817E
:1015500006B0BDE8F08700000038014001468888E9
:10156000C0F308007047C1F308028280704700BFD3
:10157000FEE7000010B586B00446012144F20400E5
:10158000FFF742FC4FF40070ADF8140018208DF8FE
:10159000170003208DF8160005A91748FFF758F922
:1015A0004FF48060ADF8140004208DF8170003207C
:1015B0008DF8160005A91048FFF74AF9019400209C
:1015C000ADF80800ADF80A00ADF80C00ADF8100059
:1015D0000C20ADF80E0001A90848FFF753FF0122C7
:1015E00040F225510548FFF727FF01210348FFF787
:1015F000E0FE06B010BD00000008014000380140C8
:1016000010B586B0044601214804FFF7EDFB012127
:101610000420FFF7F9FB0420ADF8140018208DF822
:10162000170003208DF8160005A91648FFF710F9DA
:101630000820ADF8140004208DF8170003208DF861
:10164000160005A90F48FFF703F901940020ADF833
:101650000800ADF80A00ADF80C00ADF810000C2041
:10166000ADF80E0001A90848FFF70CFF012240F277
:1016700025510548FFF7E0FE01210348FFF799FED9
:1016800006B010BD00080140004400400FB4054BF7
:1016900010B503A9044A029800F0DEF810BC5DF80A
:1016A00014FB000005230008280000200FB4084B9D
:1016B00010B504A902AA039800F0CEF8044602A9C6
:1016C000002000F060FC204610BC5DF814FB000018
:1016D000871F000802E008C8121F08C1002AFAD1BB
:1016E00070477047002001E001C1121F002AFBD1A2
:1016F000704700002DE9FF5FDDE90220010DDDF8F4
:1017000038B0024318D044F61050A1F2FF314143E3
:101710000D140F98012820D0A5EB0B00401C5FEAA8
:10172000000A4FF00004474EDFF81C91A0465046D7
:1017300016D5CAF1000728E00F98012443A201281A
:1017400008D0002100980F9BC0E90021C0E90243A6
:10175000BDE8FF9F6FEA0B01F4E7CBF10000DEE785
:10176000074612E0F80707D022463346404649466E
:10177000FEF7DFFD8046894622463346104619466D
:10178000FEF7D7FD04460E467F10002FEAD1DDE9B3
:101790000201BAF1000F42464B4602DAFEF7C9FDDC
:1017A00001E0FEF77AFF04460E460022284BFEF7C2
:1017B00087FE03D84FF0FF30014607E00022254B9B
:1017C00020463146FEF70EFDFEF7D6FF102409E055
:1017D000002C0ADB0A220023FEF7A0FE019B303218
:1017E0001A55641E50EA0102F2D1641C019AC4F138
:1017F000110314440F9A012A03D0012208430DD18A
:101800000AE0084304D000204FF0110B0F9080E74E
:10181000A3EB0B056D1E0DE05B4504DD4FF00002F0
:1018200005F1010504E003DA4FF00002A5F101051E
:10183000002AECD000980F99C0E90231C0E90045B8
:1018400086E70000000024400000F03F3000000068
:101850000000F0430000E03F2DE9FF4F95B09B46AC
:101860008946064600250FE2252877D10024274621
:10187000F84A0121059400E0044316F8013F203B9B
:1018800001FA03F01042F7D130782A2811D06FF016
:101890002F033078A0F13002092A16D8059A44F0B7
:1018A000020402EB820203EB42021044761C059014
:1018B000EFE759F8042B0592002A03DA504244F46A
:1018C0000054059044F00204761C30782E2816D17E
:1018D00016F8010F44F004042A280DD06FF02F02EF
:1018E0003078A0F13003092B09D807EB870302EB0E
:1018F0004303C718761CF3E759F8047B761C30784D
:101900006C280FD006DC4C2817D068280DD06A2828
:1019100014D104E0742810D07A280FD10DE044F4DB
:1019200000140AE044F4801401E044F44014727896
:10193000824202D104F58014761C761C3078662829
:101940000BD013DC582877D009DC002875D0452847
:10195000F6D04628F4D047281AD19DE118E0632834
:1019600035D0642879D0652812D195E1702873D0DC
:1019700008DC6728F1D069286FD06E280DD06F2859
:1019800006D1B5E073282CD0752875D0782874D08E
:101990005A46179990476D1C75E1C4F3025002280E
:1019A00009D003280DD0D9F8001004280DD00D60FF
:1019B00009F1040967E1D9F80010EA17C1E90052FA
:1019C000F6E7D9F800100D80F2E70D70F0E719F88E
:1019D000041B8DF8001000208DF80100EA4601205C
:1019E00003E059F804AB4FF0FF3061074FF00001FE
:1019F00002D40DE008F101018846B9420FDA8045B2
:101A0000F8DB1AF808100029F4D108E008F1010108
:101A100088468142FADB1AF808100029F6D10598A9
:101A20005B46A0EB080721463846179A00F094FA67
:101A3000284400EB080507E04DE029E10DE01AF825
:101A4000010B5A4617999047B8F10108F7D25B4647
:101A500021463846179A13E142E00A220092C4F365
:101A600002524FF0000A022A08D059F804CB032A88
:101A70004FEAEC710AD00DE029E02AE009F10701F4
:101A800021F00702F2E802C1914609E00FFA8CFC4E
:101A90004FEAEC71042A03D14FFA8CFC4FEAEC7147
:101AA000002907DA0A460021DCF1000C61EB020193
:101AB0002D2202E0220504D52B228DF804200122DC
:101AC00003E0E20701D02022F7E7904659E00A211F
:101AD00002E010220DE010214FF0000A00910BE00F
:101AE00010224FF0000A44F004040827009203E09B
:101AF00008224FF0000A0092C4F30252022A05D0D5
:101B000059F804CB0021032A08D009E009F10701A4
:101B100021F00702F2E802C1914605E01FFA8CFCB1
:101B2000042A01D10CF0FF0C4FF00008220728D541
:101B3000702806D0009B83F0100353EA0A0305D0F7
:101B40000EE040228DF80420012208E05CEA010248
:101B500006D030228DF804208DF805000222904630
:101B6000009B83F0080353EA0A030AD15CEA0102EE
:101B700001D1620705D530228DF804204FF001080D
:101B80007F1E582804D034A003900EA802900DE0C8
:101B900036A0F9E753466046009AFEF7BFFC84463C
:101BA0000398825C0298401E029002705CEA010079
:101BB000F0D1029806A9081A00F1200A600702D5A0
:101BC00024F4803400E00127574502DDA7EB0A002A
:101BD00000E0002000EB0A01009005984144401A03
:101BE0000590E00306D45B462146179A059800F05D
:101BF000B3F90544002706E001A85A46C05D1799CD
:101C000090476D1C7F1C4745F6DBE0030CD55B4617
:101C10002146179A059800F09FF9054404E030200A
:101C20005A46179990476D1C0099481E009000294C
:101C3000F5DC08E0029802995A460078491C0291A6
:101C4000179990476D1CBAF10001AAF1010AF1DC65
:101C500065E1000009280100303132333435363770
:101C600038396162636465660000000030313233E8
:101C70003435363738394142434445460000000088
:101C800000F058F90544761C307800287FF4ECAD5C
:101C900019B02846BDE8F08F620700D4062709F185
:101CA000070222F0070CFCE80223E14603F000489B
:101CB0005FEA080C02D00FF2702C0DE05FEA045CC2
:101CC00002D50FF2682C07E05FEAC47C02D00FF265
:101CD000602C01E0AFF2700C4FF0FF3823F00043AE
:101CE000CDF850C065280CD006DC452809D0462820
:101CF0001DD047283DD13DE0662818D067287ED109
:101D000038E00021112F01DB112000E0781CCDE923
:101D1000000106A90EA8FFF7EDFCDDE90F010E9A00
:101D200003910021009207F1010A04914DE04FF068
:101D300000400097CDE9011006A90EA8FFF7DAFCD4
:101D4000DDE90F0203920E9B11990022DDF80CA031
:101D50000093049211B9791C00EB010AB7EB0A0059
:101D600004D4C0F1FF3007F1010A0490AAEB070088
:101D7000019044E0012F00DA01270021112F01DD3D
:101D8000112000E03846CDE9000106A90EA8FFF7B2
:101D9000B1FCDDE90F010E9A03910021049100923C
:101DA000BA4621070CD40399514500DA8A46BAF1A4
:101DB000010F05DD009AAAF10101515C302908D01C
:101DC000B84202DA10F1040F06DA0121CDE9011060
:101DD00015E0AAF10101E9E7002805DC04990144B6
:101DE0000491AAEB000102E0411C514500DD8A4646
:101DF0000499401A401C01904FF0004002902007C7
:101E000004D40198504501DBCDF8048000208DF802
:101E10004F0002980DF14F07B0F1004F25D02B2055
:101E20000E9002984FF0020800280CDA404202900F
:101E30002D200E9007E00A210298FEF759FB303161
:101E4000029007F8011DB8F10001A8F10108F2DCC9
:101E500002980028EFD1791E0E980870307800F0B3
:101E6000200040F0450007F8020D12A8C01B00F149
:101E700007081498007800B1012000EB0A010198CE
:101E800001EBE07105984144401A401E0590E003C3
:101E900006D45B462146179A059800F05DF8054484
:101EA0001498007818B15A46179990476D1CE003B2
:101EB00024D55B462146179A059800F04DF8054455
:101EC0001CE00498002807DBDDE90301884203DDFC
:101ED0000098405C179901E0179930205A469047C6
:101EE000049805F10105401C04900198401E0190E2
:101EF00004D12E205A46179990476D1CBAF1000163
:101F0000AAF1010ADDDC05E017F8010B5A46179922
:101F100090476D1CB8F10001A8F10108F4DC5B46A4
:101F20002146179A0598ABE62D0000002B00000013
:101F3000200000002DE9F041044600251E4617460A
:101F4000880404D405E039462020B0476D1C641E87
:101F5000F9D52846BDE8F0812DE9F0410446002579
:101F60001E469046C80301D5302700E0202788048C
:101F700004D505E041463846B0476D1C641EF9D5CE
:101F80002846BDE8F0810A68531C0B60107070474A
:101F900070B504460E46002506B104B970BDA568AB
:101FA0000DB9A66008E000E02D6828680028FBD184
:101FB0003146284601F08AF800BFEFE72DE9F041ED
:101FC00006460D461446284600F0A8F80746224665
:101FD0003946304600F006F8E06820F40070E06012
:101FE000BDE8F08170B506460D46144604B970BDD3
:101FF000A08900F4007028B9206A18B10749206A46
:10200000096888472562E06840F40070E060214676
:102010003046FFF7BDFF00BFE9E7000024000020C5
:1020200070B505460E4600F05FF80446F4B108208E
:10203000E060C4E906560E4A0E4B28463146FEF7CC
:102040003FFA03D86FF0004060610FE000220A4BB6
:1020500028463146FEF71CFA03D84FF00040606175
:1020600004E028463146FEF7F4F96061204670BD71
:102070000000C0FFFFFFDF410000E0C110B500F02D
:1020800033F804460CB14020E060204610BD00004B
:1020900070B50446002522E02568A08900F4807010
:1020A00020B9A06810B1A068FFF7F2FFA08900F482
:1020B000807028B9206918B10A49206909688847E1
:1020C000A08900F4007028B9206A18B10549206A77
:1020D0000968884720460349096888472C46002C30
:1020E000DAD170BD2400002010B528200549096808
:1020F000884704461CB128212046FEF74EF82046AA
:1021000010BD00002000002010B50446002301226D
:102110001946204600F0F2FE10BD000070B50446DE
:10212000002500260CB9002070BD2046FEF74AF8B5
:10213000451C2846064909688847060000D1F3E790
:102140002A4621463046FEF70FF83046ECE70000FD
:102150002000002001B54FF47A72009901FB02F0D3
:1021600000F002F808BD000001B5084900980860B9
:102170004FF0E020006940F001004FF0E0210861DD
:1021800000BF024800680028FBD108BD14000020F1
:102190002DE9F04104460D4600260027B5F1004F19
:1021A00002D30020BDE8F0810CB1206808B90020FE
:1021B000F8E7A06805446068A84203D3A1682068D6
:1021C0000844EFE7E06808B10020EBE76F00B7F1E3
:1021D000004F07D3B5F1004F02D26FF0004701E086
:1021E0000020DFE738460E490968884706463EB9B1
:1021F0000C49206809688847002060602060D1E7AA
:1022000026B13046D4E90012FDF7AEFF054920683B
:102210000968884767602660A0683044C2E700000C
:1022200020000020240000202DE9F041C1F30A52D3
:10223000A2F2FF362F4A304B0D460446142E2FDAF9
:10224000002E12DAFDF7CEFF00221346FEF738F912
:102250004CD2002DA4BF0024254647DA25F00040CB
:10226000204318BF254D41D018E0DFF894C02CFA68
:1022700006F705EA070C5CEA040C08BFBDE8F0812C
:10228000FDF7B0FF00221346FEF71AF92ED2002DFB
:1022900003DA4FF48010F0400544BD43002425E0EC
:1022A000332EC8BFBDE8F081A6F1140C4FF0FF3704
:1022B00027FA0CF73C4208BFBDE8F081FEF736F87C
:1022C00000221346FEF7FCF810D2002D0DDA142E72
:1022D00008BF6D1C09D0C6F13400012101FA00F0DD
:1022E0002044A04238BF6D1C0446BC43294620460A
:1022F000BDE8F0819C7500883CE4377E0000F0BFAB
:10230000FFFF0F0070B504460D46E1B20548FFF728
:102310002AF900BF40210348FFF757F80028F9D0F9
:10232000204670BD0038014010B5002821D0114B67
:102330000022001F196803E0814203D80A46496859
:102340000029F9D152B11368841A9C4204D1006863
:1023500018441060104602E0506000E0186039B187
:1023600002680B1A934203D10B681A440260496851
:10237000416010BD2C00002008B501210420FEF7AB
:1023800043FD4FF48070ADF8000010208DF803007D
:1023900001208DF8020069460348FEF759FA012131
:1023A0000148FEF7EBFA08BD000801400EB5002019
:1023B00001900290FEF730FFFFF7DEFF4FF4E130AF
:1023C000FFF7D8F84FF4E130FFF71AF9FEF7A0FC59
:1023D000FEF722FA00F066FE00BF01A8FEF7C0FD7E
:1023E00001280CD19DF8070000909DF806309DF85B
:1023F00005209DF8041010A0FFF748F902E015A091
:10240000FFF744F901A8FEF70BFE4FF48071144862
:10241000FEF7B2FA10211248FEF7B0FA4FF47A70C4
:10242000FFF798FE4FF480710D48FEF7A7FA4FF4BE
:102430007A70FFF78FFED0E7CAAAB6C8CEAA256485
:102440002E256420CEC2B6C8CEAA2025642E2564CF
:102450000A000000B6C1C8A1B4EDCEF30A00000026
:1024600000080140F0B50B30154D20F007010024A5
:10247000144A0FE003688B420BD38B4205D95E1AD6
:1024800043184768C3E9006700E04368136002C06F
:1024900004E0021D10680028ECD12046002802D17B
:1024A000286808B10020F0BD064A07481060074AB6
:1024B000121A22F00702C0E9002401202860D7E7A1
:1024C000300000202C000020040100200003002028
:1024D0002DE9FF4F85B092461E464FF0000B0024B9
:1024E00000200490052003900598D0F80880A146AC
:1024F000002500200290019003E009F10109D8F8BD
:102500000080B8F1000FF8D1B9F1000F16D12EB14B
:1025100003213046FFF73CFE834604E00320804958
:10252000096888478346BBF1000F03D07DA1584658
:10253000FDF74FFE584609B0BDE8F08F002E5AD087
:10254000B56801213046FFF723FE04460CB9002090
:10255000F1E75B202070B068401CB0600598D0F8AF
:10256000088031E0334652460699491C404600F047
:10257000C5FC08B90020DEE7304600F0B4FDB060CD
:10258000D8F80000F0B1BAF1000F01D0022000E04D
:10259000012003900399491C3046FFF7F9FD0446DA
:1025A0000CB90020C7E72C2004F8010BBAF1000F8A
:1025B00002D0202004F8010B00202070B16803989D
:1025C0000844B060D8F80080B8F1000F02D002983B
:1025D0000028C7D002213046FFF7DAFD04460CB9C7
:1025E0000020A8E75D2004F8010B0020207030686F
:1025F00000EB050B91E04FEA8900494909688847DB
:1026000007460FB9002096E74FEA89013846FDF7E3
:10261000C4FD0598D0F8088021E0002352460699B1
:10262000491C404600F06AFC049029466D1C049841
:1026300047F82100049870B10498FDF7C3FD801C91
:10264000BAF1000F01D0012100E0002101440398FC
:102650000844039001E001200290D8F80080B8F10E
:10266000000F02D002980028D7D0029820B92C4938
:102670000398096888478346BBF1000F01D1012008
:102680000290029890B1002508E057F8250020B18B
:1026900057F825002449096888476D1C4D45F4D337
:1026A0003846214909688847002044E75B208BF8B9
:1026B00000000BF1010400202070002521E057F8F4
:1026C0002500FDF77FFD019057F825102046019A5F
:1026D000FDF74AFD01980444A9F10100A8420AD07F
:1026E0002C2004F8010BBAF1000F02D0202004F8CE
:1026F000010B0020207057F825000B490968884716
:102700006D1C4D45DBD338460749096888475D2075
:1027100004F8010B002004F8010B58460BE70000F9
:10272000200000205B5D0000240000202DE9FC4714
:1027300082460E464FF00009DAE9064500221346AC
:1027400020462946FDF7A4FE13D12EB102213046C2
:10275000FFF71EFD814604E00220524909688847C0
:102760008146B9F1000F03D04FA00088A9F80000FE
:1027700095E0DAF81400FDF74EFE074622462B4698
:10278000FDF7D1FD21F000410022484BCDE90001C9
:10279000FDF77EFE23D8464A464B20462946FDF7E4
:1027A00077FE1CD80022444B20462946FDF788FEC0
:1027B00015D82EB115213046FFF7EAFC814604E01A
:1027C00015203849096888478146B9F1000F66D05D
:1027D0003AA14846DAF81420FEF768FF5FE02EB110
:1027E00040213046FFF7D4FC814604E040202D49CB
:1027F000096888478146B9F1000F50D0002213467E
:1028000020462946FDF795FD074600221346FDF7B1
:102810003FFE04D02AA14846FEF748FF3FE020468D
:102820002946FFF701FD074622462B46FDF77BFDB3
:1028300021F0004100221D4BCDE90001FDF728FEEB
:102840000FD825F0004127461F4A204B3846FDF798
:102850001FFE06D222462B461DA14846FEF726FF44
:102860001DE025F0004127461B4A1C4B3846FDF76A
:102870000FFE07D325F000410022194B3846FDF723
:102880001FFE06D222462B4616A14846FEF70EFF33
:1028900005E022462B4614A14846FEF707FF4846AE
:1028A000BDE8FC8720000020300000000000B03CA4
:1028B0000000C0FFFFFFDF410000E0C12564000011
:1028C0006E756C6C0000000044F3C2E4E4E9634CF4
:1028D000252E3066000000008DEDB5A0F7C6B03E95
:1028E00065CDCD4125650000256600002DE9FF4F2F
:1028F00089B0884616461F4600200890079006902B
:102900000024059004904FF0070A002503900998D1
:10291000D0F80890002002900190009004E0029806
:10292000401C0290D9F80090B9F1000FF7D102983D
:10293000002833D157B116B108F1040000E003209C
:1029400001463846FFF724FC069009E016B108F16D
:10295000040100E003210846ED4909688847069014
:10296000069818B900200DB0BDE8F08F069C7B20BA
:1029700004F8010B56B10A2004F8010B002503E00E
:10298000092004F8010B6D1C4545F9D37D2004F89E
:10299000010B002004F8010B0698E4E7002F71D02A
:1029A000BD680EB1022000E0012082460AF101015B
:1029B0003846FFF7EDFB04460CB90020D3E77B2037
:1029C00004F8010B16B10A2004F8010B0020207056
:1029D000B8685044B8600998D0F8089008F1010828
:1029E0006EE0B6B141463846FFF7D2FB04460CB95B
:1029F0000020B8E70020039005E0092004F8010B4F
:102A00000398401C039003984045F6D3B8684044AF
:102A1000B8603946D9F8200000F086F908B90020DE
:102A2000A1E7384600F05FFBB8600EB1022000E07D
:102A30000120824651463846FFF7AAFB04460CB9EE
:102A4000002090E73A2004F8010B16B1092004F8A1
:102A5000010BB8685044B8603B4632464146484690
:102A600000F04CFA08B900207DE7384600F03BFB47
:102A7000B8600EB1012000E00020D9F8001011B1BB
:102A8000012101E040E0002100EB010A0AF101010F
:102A90003846FFF77DFB04460CB9002063E7D9F800
:102AA000000010B12C2004F8010B16B10A2004F824
:102AB000010B00202070B8685044B860D9F800902D
:102AC000B9F1000F8DD116B108F1010000E002202C
:102AD00001463846FFF75CFB04460CB9002042E78C
:102AE0004EB1002503E0092004F8010B6D1CA8F18C
:102AF0000100A842F7D87D2004F8010B00202070C7
:102B000038682844069001E10299880080490968E4
:102B100088470890089808B9002024E7029988009F
:102B20007B49096888470790079828B97949089828
:102B300009688847002016E7029881000898FDF789
:102B40002CFB029881000798FDF727FB0998D0F825
:102B5000089008F1010806B1C2442EE00021D9F81E
:102B6000200000F0E1F80490079941F825000023C7
:102B700032464146484600F0C1F929466D1C059091
:102B8000089A42F82100049898B1059888B10598F0
:102B9000FDF718FB83460498FDF714FB0BEB0001CF
:102BA000891C16B108F1020000E0002008448244AC
:102BB00001E001200190D9F80090B9F1000F02D096
:102BC00001980028CAD0019820B950465049096898
:102BD00088470690069808B901200190019818B31B
:102BE000002514E0079850F8250028B1079951F8FE
:102BF0002500484909688847089850F8250028B1F9
:102C0000089951F825004349096888476D1C0298C6
:102C10008542E7D33F490798096888473D490898A6
:102C20000968884700209EE67B2106980170069877
:102C3000441C16B10A2004F8010B00202070002566
:102C400048E05EB10020039005E0092004F8010B84
:102C50000398401C039003984045F6D3079951F818
:102C60002500FDF7AFFA0090079850F82510204690
:102C7000009AFDF779FA009804443A2004F8010B11
:102C800016B1092004F8010B089850F825102046C9
:102C9000FDF79FFA089951F82500FDF793FA0444CF
:102CA0000298401EA84202D02C2004F8010B16B155
:102CB0000A2004F8010B00202070079951F8250024
:102CC000144909688847089951F82500114909688D
:102CD00088476D1C02988542B3D30E49079809684E
:102CE00088470C490898096888474EB1002503E0D9
:102CF000092004F8010B6D1CA8F10100A842F7D8C7
:102D00007D2004F8010B002004F8010B06982AE648
:102D1000200000202400002070B504460D462946FE
:102D2000206900F001F870BD2DE9F05F804689460A
:102D30000025002400260027A346A246B8F1000F74
:102D400017D1B9F1000F05D003214846FFF720FA4B
:102D5000064604E00320634909688847064616B919
:102D60000020BDE8F09F60A13046FDF732FA304602
:102D7000F7E7454611E02878002802DD287820286A
:102D800005DB2878222802D028785C2801D1012090
:102D900000E0002040EA0B0B6D1C28780028EAD1E7
:102DA000BBF1000F21D1A5EB0807B9F1000F05D049
:102DB000F91C4846FFF7ECF9064604E0F81C4949BF
:102DC0000968884706460EB90020CAE73446222023
:102DD00004F8010B41462046FDF7FBF92220E0559F
:102DE0000021781C21543046BBE745460CE07F1C8F
:102DF00051463EA0FDF7DCF908B17F1C03E0BAF1B3
:102E0000200F00DA7F1D6D1C28785FEA000AEED1E2
:102E1000B9F1000F05D0F91C4846FFF7B9F906468D
:102E200004E0F81C2F490968884706460EB90020BF
:102E300097E734464546222004F8010B47E02878FE
:102E40001F280ADD2878222807D028785C2804D09B
:102E500015F8010B04F8010B39E05C2004F8010BB4
:102E600015F8011B8A460C2919D006DC082912D056
:102E7000092920D00A2922D115E00D2917D02229AD
:102E800005D05C291BD15C2004F8010B1EE0222038
:102E900004F8010B1AE0622004F8010B16E066202A
:102EA00004F8010B12E06E2004F8010B0EE0722012
:102EB00004F8010B0AE0742004F8010B06E0524606
:102EC0000CA12046FEF7F2FB641D00BF00BF28786E
:102ED0000028B4D1222004F8010B002004F8010BD3
:102EE00030463EE72000002022220000225C080C31
:102EF0000A0D090075253034780000002DE9F047EF
:102F00000446884691461D46002614B90020BDE8B7
:102F1000F087002D6ED0207B102852D008DC0128CD
:102F200018D0022821D0042809D008285FD127E032
:102F300020284CD0402852D0802858D126E00521A6
:102F40002846FFF725F906461EB14FA13046FDF78A
:102F500040F94EE006212846FFF71AF906461EB151
:102F60004BA13046FDF735F943E005212846FFF730
:102F70000FF906461EB148A13046FDF72AF938E0A0
:102F800029462046FFF7D2FB064632E0002720699B
:102F900038B9E86818B9424928680968884700269E
:102FA00027E02069FDF70EF9071D39462846FFF78F
:102FB000EFF8064626B13A4630462169FDF7D4F8C7
:102FC00017E029462046FFF7A7FE064611E02B46EC
:102FD0004A4641462046FFF77BFA064609E02B4663
:102FE0004A4641462046FFF781FC064601E000269E
:102FF00000BF46E0207B10282AD008DC012812D030
:10300000022815D0042809D0082837D115E0202837
:1030100024D040282AD0802830D114E01AA0FFF70D
:103020007DF806462CE01AA0FFF778F8064627E060
:1030300019A0FFF773F8064622E000212046FFF7AB
:1030400075FB06461CE02069FFF768F8064617E0A6
:1030500000212046FFF760FE064611E000234A46A5
:1030600041462046FFF734FA064609E000234A4667
:1030700041462046FFF73AFC064601E0002600BF25
:1030800000BF304643E700006E756C6C0000000026
:1030900066616C7365000000747275650000000065
:1030A0002400002008B51020ADF800008DF80300C2
:1030B00001208DF8020069460348FDF7C9FB102185
:1030C0000148FDF75BFC08BD000801400160486055
:1030D000704770B504460D4600262946204600F08C
:1030E00013F8304670BD70B5044600250CB1206859
:1030F00008B9002070BDA168206845182846FDF772
:1031000061F8A1680844F5E770B504460D4600264D
:1031100004E014F8010BFEF72DF9761CAE42F8DB43
:1031200070BD70B504460E463046FDF74BF80546B7
:103130002946204600F00FF82A4631462068FDF760
:1031400013F820682844206070BD0268117002687E
:10315000521C0260704710B50A46CB1701EB13638F
:103160001B0A046823700268521C02600A46CB17CF
:1031700001EB13631B12A1EB0323046823700268A5
:10318000521C026010BD1FB50446029800280DDDD8
:1031900020460299FFF7DFFFDDE902212068FCF7F6
:1031A000E3FF20680299084420600AE0019820B1FA
:1031B00020460199FFF7B5FF03E000212046FFF705
:1031C000CAFF1FBD4D515443000000000400000021
:1031D0000000000000000000000000003C000100B2
:1031E0004D51545700000000000000000000000096
:1031F00000000000000000000000000000000000CF
:1032000000000000000000000000000000000000BE
:103210000000000000000000000000003C32000838
:103220000000002034000000D416000870320008AE
:1032300034000020CC060000E41600080000000066
:103240000102030401020304060708090204060838
:1032500000000000000000000000000065240008DD
:10326000292300080000000000000000000000000A
:0400000508000131BD
:00000001FF
